{
  "contractName": "DeviceSpawner",
  "abi": [
    {
      "inputs": [
        {
          "name": "_input_address",
          "type": "address"
        }
      ],
      "payable": true,
      "stateMutability": "payable",
      "type": "constructor"
    },
    {
      "anonymous": false,
      "inputs": [
        {
          "indexed": true,
          "name": "_sender",
          "type": "address"
        },
        {
          "indexed": true,
          "name": "_contract",
          "type": "address"
        }
      ],
      "name": "DeviceAdd",
      "type": "event"
    },
    {
      "constant": true,
      "inputs": [],
      "name": "getRawbotAddress",
      "outputs": [
        {
          "name": "_rawbot_address",
          "type": "address"
        }
      ],
      "payable": false,
      "stateMutability": "view",
      "type": "function"
    },
    {
      "constant": false,
      "inputs": [
        {
          "name": "_manager",
          "type": "address"
        },
        {
          "name": "_device_serial_number",
          "type": "bytes32"
        },
        {
          "name": "_device_name",
          "type": "bytes32"
        },
        {
          "name": "_owner_name",
          "type": "bytes32"
        },
        {
          "name": "_country",
          "type": "bytes32"
        },
        {
          "name": "_location",
          "type": "bytes32"
        },
        {
          "name": "_latitude",
          "type": "uint256"
        },
        {
          "name": "_longitude",
          "type": "uint256"
        },
        {
          "name": "_altitude",
          "type": "uint256"
        },
        {
          "name": "_accuracy",
          "type": "uint256"
        },
        {
          "name": "json",
          "type": "string"
        }
      ],
      "name": "addDevice",
      "outputs": [
        {
          "name": "__spawned_device",
          "type": "address"
        }
      ],
      "payable": false,
      "stateMutability": "nonpayable",
      "type": "function"
    },
    {
      "constant": true,
      "inputs": [
        {
          "name": "_address",
          "type": "address"
        }
      ],
      "name": "hasAccess",
      "outputs": [
        {
          "name": "__allowed",
          "type": "bool"
        }
      ],
      "payable": false,
      "stateMutability": "view",
      "type": "function"
    },
    {
      "constant": true,
      "inputs": [],
      "name": "getContractBalance",
      "outputs": [
        {
          "name": "__balance",
          "type": "uint256"
        }
      ],
      "payable": false,
      "stateMutability": "view",
      "type": "function"
    },
    {
      "constant": true,
      "inputs": [
        {
          "name": "device_address",
          "type": "address"
        }
      ],
      "name": "getDeviceOwner",
      "outputs": [
        {
          "name": "__device_owner",
          "type": "address"
        }
      ],
      "payable": false,
      "stateMutability": "view",
      "type": "function"
    },
    {
      "constant": true,
      "inputs": [
        {
          "name": "device_address",
          "type": "address"
        }
      ],
      "name": "getDeviceManager",
      "outputs": [
        {
          "name": "__device_manager",
          "type": "address"
        }
      ],
      "payable": false,
      "stateMutability": "view",
      "type": "function"
    },
    {
      "constant": true,
      "inputs": [
        {
          "name": "device_address",
          "type": "address"
        }
      ],
      "name": "getDeviceBalance",
      "outputs": [
        {
          "name": "__device_balance",
          "type": "uint256"
        }
      ],
      "payable": false,
      "stateMutability": "view",
      "type": "function"
    },
    {
      "constant": false,
      "inputs": [
        {
          "name": "device_address",
          "type": "address"
        },
        {
          "name": "device_manager",
          "type": "address"
        }
      ],
      "name": "setDeviceManager",
      "outputs": [
        {
          "name": "success",
          "type": "bool"
        }
      ],
      "payable": false,
      "stateMutability": "nonpayable",
      "type": "function"
    },
    {
      "constant": true,
      "inputs": [
        {
          "name": "device_address",
          "type": "address"
        }
      ],
      "name": "getDeviceInformation",
      "outputs": [
        {
          "name": "serial_number",
          "type": "bytes32"
        },
        {
          "name": "name",
          "type": "bytes32"
        },
        {
          "name": "owner",
          "type": "address"
        },
        {
          "name": "owner_name",
          "type": "bytes32"
        },
        {
          "name": "country",
          "type": "bytes32"
        },
        {
          "name": "location",
          "type": "bytes32"
        },
        {
          "name": "latitude",
          "type": "uint256"
        },
        {
          "name": "longitude",
          "type": "uint256"
        },
        {
          "name": "altitude",
          "type": "uint256"
        },
        {
          "name": "accuracy",
          "type": "uint256"
        },
        {
          "name": "json",
          "type": "string"
        }
      ],
      "payable": false,
      "stateMutability": "view",
      "type": "function"
    }
  ],
  "bytecode": "0x608060405260006005556000600655604051602080615c5a83398101806040528101908080519060200190929190505050806000806101000a81548173ffffffffffffffffffffffffffffffffffffffff021916908373ffffffffffffffffffffffffffffffffffffffff16021790555080600160006101000a81548173ffffffffffffffffffffffffffffffffffffffff021916908373ffffffffffffffffffffffffffffffffffffffff16021790555050615b99806100c16000396000f300608060405260043610610099576000357c0100000000000000000000000000000000000000000000000000000000900463ffffffff1680632483142e1461009e578063459b23a4146100f557806350b37133146101785780635536e7b0146101cf5780636f9fb98a146103255780637f0fcb10146103505780638a34961c146103cb57806395a078e814610502578063d643d8af1461055d575b600080fd5b3480156100aa57600080fd5b506100b36105e0565b604051808273ffffffffffffffffffffffffffffffffffffffff1673ffffffffffffffffffffffffffffffffffffffff16815260200191505060405180910390f35b34801561010157600080fd5b50610136600480360381019080803573ffffffffffffffffffffffffffffffffffffffff169060200190929190505050610609565b604051808273ffffffffffffffffffffffffffffffffffffffff1673ffffffffffffffffffffffffffffffffffffffff16815260200191505060405180910390f35b34801561018457600080fd5b506101b9600480360381019080803573ffffffffffffffffffffffffffffffffffffffff169060200190929190505050610675565b6040518082815260200191505060405180910390f35b3480156101db57600080fd5b50610210600480360381019080803573ffffffffffffffffffffffffffffffffffffffff169060200190929190505050610696565b604051808c600019166000191681526020018b600019166000191681526020018a73ffffffffffffffffffffffffffffffffffffffff1673ffffffffffffffffffffffffffffffffffffffff16815260200189600019166000191681526020018860001916600019168152602001876000191660001916815260200186815260200185815260200184815260200183815260200180602001828103825283818151815260200191508051906020019080838360005b838110156102e05780820151818401526020810190506102c5565b50505050905090810190601f16801561030d5780820380516001836020036101000a031916815260200191505b509c5050505050505050505050505060405180910390f35b34801561033157600080fd5b5061033a610802565b6040518082815260200191505060405180910390f35b34801561035c57600080fd5b506103b1600480360381019080803573ffffffffffffffffffffffffffffffffffffffff169060200190929190803573ffffffffffffffffffffffffffffffffffffffff169060200190929190505050610821565b604051808215151515815260200191505060405180910390f35b3480156103d757600080fd5b506104c0600480360381019080803573ffffffffffffffffffffffffffffffffffffffff1690602001909291908035600019169060200190929190803560001916906020019092919080356000191690602001909291908035600019169060200190929190803560001916906020019092919080359060200190929190803590602001909291908035906020019092919080359060200190929190803590602001908201803590602001908080601f0160208091040260200160405190810160405280939291908181526020018383808284378201915050505050509192919290505050610959565b604051808273ffffffffffffffffffffffffffffffffffffffff1673ffffffffffffffffffffffffffffffffffffffff16815260200191505060405180910390f35b34801561050e57600080fd5b50610543600480360381019080803573ffffffffffffffffffffffffffffffffffffffff169060200190929190505050610e99565b604051808215151515815260200191505060405180910390f35b34801561056957600080fd5b5061059e600480360381019080803573ffffffffffffffffffffffffffffffffffffffff169060200190929190505050610ef2565b604051808273ffffffffffffffffffffffffffffffffffffffff1673ffffffffffffffffffffffffffffffffffffffff16815260200191505060405180910390f35b60008060009054906101000a900473ffffffffffffffffffffffffffffffffffffffff16905090565b6000600860008373ffffffffffffffffffffffffffffffffffffffff1673ffffffffffffffffffffffffffffffffffffffff16815260200190815260200160002060020160009054906101000a900473ffffffffffffffffffffffffffffffffffffffff169050919050565b60008173ffffffffffffffffffffffffffffffffffffffff16319050919050565b60008060008060008060008060008060606000600860008e73ffffffffffffffffffffffffffffffffffffffff1673ffffffffffffffffffffffffffffffffffffffff1681526020019081526020016000209050806000015481600101548260020160009054906101000a900473ffffffffffffffffffffffffffffffffffffffff1683600301548460050154856006015486600701548760080154886009015489600a01548a600b01808054600181600116156101000203166002900480601f0160208091040260200160405190810160405280929190818152602001828054600181600116156101000203166002900480156107d55780601f106107aa576101008083540402835291602001916107d5565b820191906000526020600020905b8154815290600101906020018083116107b857829003601f168201915b505050505090509b509b509b509b509b509b509b509b509b509b509b505091939597999b90929496989a50565b60003073ffffffffffffffffffffffffffffffffffffffff1631905090565b60003373ffffffffffffffffffffffffffffffffffffffff1661084384610609565b73ffffffffffffffffffffffffffffffffffffffff161415156108ce576040517f08c379a000000000000000000000000000000000000000000000000000000000815260040180806020018281038252601b8152602001807f4d73672073656e6465722069736e277420746865206f776e65722e000000000081525060200191505060405180910390fd5b81600860008573ffffffffffffffffffffffffffffffffffffffff1673ffffffffffffffffffffffffffffffffffffffff16815260200190815260200160002060040160006101000a81548173ffffffffffffffffffffffffffffffffffffffff021916908373ffffffffffffffffffffffffffffffffffffffff1602179055506001905092915050565b60008060008d73ffffffffffffffffffffffffffffffffffffffff161415801561098b575060006001028c6000191614155b801561099f575060006001028b6000191614155b80156109b3575060006001028a6000191614155b80156109c757506000600102896000191614155b80156109db57506000600102886000191614155b80156109e75750600087115b80156109f35750600086115b8015610a00575060008510155b8015610a0d575060008410155b1515610a1857600080fd5b600160009054906101000a900473ffffffffffffffffffffffffffffffffffffffff1673ffffffffffffffffffffffffffffffffffffffff1663ac2ce9bc336000809054906101000a900473ffffffffffffffffffffffffffffffffffffffff1668056bc75e2d631000006040518463ffffffff167c0100000000000000000000000000000000000000000000000000000000028152600401808473ffffffffffffffffffffffffffffffffffffffff1673ffffffffffffffffffffffffffffffffffffffff1681526020018373ffffffffffffffffffffffffffffffffffffffff1673ffffffffffffffffffffffffffffffffffffffff1681526020018281526020019350505050600060405180830381600087803b158015610b3b57600080fd5b505af1158015610b4f573d6000803e3d6000fd5b50505050336000809054906101000a900473ffffffffffffffffffffffffffffffffffffffff16610b7e610f5e565b808373ffffffffffffffffffffffffffffffffffffffff1673ffffffffffffffffffffffffffffffffffffffff1681526020018273ffffffffffffffffffffffffffffffffffffffff1673ffffffffffffffffffffffffffffffffffffffff16815260200192505050604051809103906000f080158015610c03573d6000803e3d6000fd5b5090506101a0604051908101604052808d6000191681526020018c6000191681526020013373ffffffffffffffffffffffffffffffffffffffff1681526020018b6000191681526020018e73ffffffffffffffffffffffffffffffffffffffff1681526020018a6000191681526020018960001916815260200188815260200187815260200186815260200185815260200184815260200160011515815250600860008373ffffffffffffffffffffffffffffffffffffffff1673ffffffffffffffffffffffffffffffffffffffff168152602001908152602001600020600082015181600001906000191690556020820151816001019060001916905560408201518160020160006101000a81548173ffffffffffffffffffffffffffffffffffffffff021916908373ffffffffffffffffffffffffffffffffffffffff1602179055506060820151816003019060001916905560808201518160040160006101000a81548173ffffffffffffffffffffffffffffffffffffffff021916908373ffffffffffffffffffffffffffffffffffffffff16021790555060a0820151816005019060001916905560c0820151816006019060001916905560e082015181600701556101008201518160080155610120820151816009015561014082015181600a015561016082015181600b019080519060200190610e07929190610f6e565b5061018082015181600c0160006101000a81548160ff0219169083151502179055509050508073ffffffffffffffffffffffffffffffffffffffff163373ffffffffffffffffffffffffffffffffffffffff167fe3a66d2c0bc11a9bdc47fe011b897e6fbc75acb642df2def1dfd00e9152988de60405160405180910390a3809150509b9a5050505050505050505050565b6000600860008373ffffffffffffffffffffffffffffffffffffffff1673ffffffffffffffffffffffffffffffffffffffff168152602001908152602001600020600c0160009054906101000a900460ff169050919050565b6000600860008373ffffffffffffffffffffffffffffffffffffffff1673ffffffffffffffffffffffffffffffffffffffff16815260200190815260200160002060040160009054906101000a900473ffffffffffffffffffffffffffffffffffffffff169050919050565b604051614b5a8061101483390190565b828054600181600116156101000203166002900490600052602060002090601f016020900481019282601f10610faf57805160ff1916838001178555610fdd565b82800160010185558215610fdd579182015b82811115610fdc578251825591602001919060010190610fc1565b5b509050610fea9190610fee565b5090565b61101091905b8082111561100c576000816000905550600101610ff4565b5090565b90560060806040526000600c55604051604080614b5a8339810180604052810190808051906020019092919080519060200190929190505050736f485c8bf6fc43ea212e93bbf8ce046c7f1cb4756000806101000a81548173ffffffffffffffffffffffffffffffffffffffff021916908373ffffffffffffffffffffffffffffffffffffffff16021790555081601160006101000a81548173ffffffffffffffffffffffffffffffffffffffff021916908373ffffffffffffffffffffffffffffffffffffffff16021790555080600560006101000a81548173ffffffffffffffffffffffffffffffffffffffff021916908373ffffffffffffffffffffffffffffffffffffffff16021790555080600660006101000a81548173ffffffffffffffffffffffffffffffffffffffff021916908373ffffffffffffffffffffffffffffffffffffffff16021790555050506149fd8061015d6000396000f300608060405260043610610132576000357c0100000000000000000000000000000000000000000000000000000000900463ffffffff168062f714ce146101345780630e504933146101995780631a0c8b08146101ea5780632483142e1461024557806327dc297e1461029c5780632a22e986146103135780632fbbad61146103ca57806338bbfa501461041b5780633a178d99146104d857806372e343e81461051d5780637684bcc61461058e5780637ed6a8ad1461065f578063917d619a146106a0578063a969ecbf146106e5578063ae73a61e1461072a578063bf38e54514610779578063c2a479ce14610804578063c783034c14610865578063cab7ca41146108aa578063ce981178146108ef578063d72c4c651461093e578063df7dfef71461098d578063fcc03293146109d2575b005b34801561014057600080fd5b5061017f60048036038101908080359060200190929190803573ffffffffffffffffffffffffffffffffffffffff1690602001909291905050506109fd565b604051808215151515815260200191505060405180910390f35b3480156101a557600080fd5b506101d060048036038101908080359060200190929190803515159060200190929190505050610bdf565b604051808215151515815260200191505060405180910390f35b3480156101f657600080fd5b5061022b600480360381019080803573ffffffffffffffffffffffffffffffffffffffff169060200190929190505050610cdb565b604051808215151515815260200191505060405180910390f35b34801561025157600080fd5b5061025a610e2d565b604051808273ffffffffffffffffffffffffffffffffffffffff1673ffffffffffffffffffffffffffffffffffffffff16815260200191505060405180910390f35b3480156102a857600080fd5b506103116004803603810190808035600019169060200190929190803590602001908201803590602001908080601f0160208091040260200160405190810160405280939291908181526020018383808284378201915050505050509192919290505050610e57565b005b34801561031f57600080fd5b506103b0600480360381019080803590602001908201803590602001908080601f01602080910402602001604051908101604052809392919081815260200183838082843782019150505050505091929192908035906020019092919080359060200190929190803590602001909291908035151590602001909291908035151590602001909291905050506113bf565b604051808215151515815260200191505060405180910390f35b3480156103d657600080fd5b50610401600480360381019080803590602001909291908035151590602001909291905050506116db565b604051808215151515815260200191505060405180910390f35b34801561042757600080fd5b506104d66004803603810190808035600019169060200190929190803590602001908201803590602001908080601f0160208091040260200160405190810160405280939291908181526020018383808284378201915050505050509192919290803590602001908201803590602001908080601f01602080910402602001604051908101604052809392919081815260200183838082843782019150505050505091929192905050506117d7565b005b3480156104e457600080fd5b50610503600480360381019080803590602001909291905050506117dc565b604051808215151515815260200191505060405180910390f35b34801561052957600080fd5b50610574600480360381019080803590602001909291908035906020019092919080359060200190929190803515159060200190929190803515159060200190929190505050611809565b604051808215151515815260200191505060405180910390f35b34801561059a57600080fd5b506105b960048036038101908080359060200190929190505050611963565b60405180806020018781526020018681526020018581526020018415151515815260200183151515158152602001828103825288818151815260200191508051906020019080838360005b8381101561061f578082015181840152602081019050610604565b50505050905090810190601f16801561064c5780820380516001836020036101000a031916815260200191505b5097505050505050505060405180910390f35b34801561066b57600080fd5b5061068a60048036038101908080359060200190929190505050611ab5565b6040518082815260200191505060405180910390f35b3480156106ac57600080fd5b506106cb60048036038101908080359060200190929190505050611ad2565b604051808215151515815260200191505060405180910390f35b3480156106f157600080fd5b5061071060048036038101908080359060200190929190505050611e61565b604051808215151515815260200191505060405180910390f35b34801561073657600080fd5b5061075f6004803603810190808035906020019092919080359060200190929190505050612004565b604051808215151515815260200191505060405180910390f35b34801561078557600080fd5b506107ea60048036038101908080359060200190929190803590602001908201803590602001908080601f01602080910402602001604051908101604052809392919081815260200183838082843782019150505050505091929192905050506124b5565b604051808215151515815260200191505060405180910390f35b34801561081057600080fd5b5061084f600480360381019080803573ffffffffffffffffffffffffffffffffffffffff16906020019092919080359060200190929190505050612c8b565b6040518082815260200191505060405180910390f35b34801561087157600080fd5b5061089060048036038101908080359060200190929190505050612ce6565b604051808215151515815260200191505060405180910390f35b3480156108b657600080fd5b506108d560048036038101908080359060200190929190505050612d3d565b604051808215151515815260200191505060405180910390f35b3480156108fb57600080fd5b50610924600480360381019080803590602001909291908035906020019092919050505061304f565b604051808215151515815260200191505060405180910390f35b34801561094a57600080fd5b506109736004803603810190808035906020019092919080359060200190929190505050613138565b604051808215151515815260200191505060405180910390f35b34801561099957600080fd5b506109b860048036038101908080359060200190929190505050613224565b604051808215151515815260200191505060405180910390f35b3480156109de57600080fd5b506109e76133ec565b6040518082815260200191505060405180910390f35b60003373ffffffffffffffffffffffffffffffffffffffff16601160009054906101000a900473ffffffffffffffffffffffffffffffffffffffff1673ffffffffffffffffffffffffffffffffffffffff16141515610ac4576040517f08c379a000000000000000000000000000000000000000000000000000000000815260040180806020018281038252601a8152602001807f4d73672073656e6465722069736e277420746865206f776e657200000000000081525060200191505060405180910390fd5b600560009054906101000a900473ffffffffffffffffffffffffffffffffffffffff1673ffffffffffffffffffffffffffffffffffffffff1663ac2ce9bc3084866040518463ffffffff167c0100000000000000000000000000000000000000000000000000000000028152600401808473ffffffffffffffffffffffffffffffffffffffff1673ffffffffffffffffffffffffffffffffffffffff1681526020018373ffffffffffffffffffffffffffffffffffffffff1673ffffffffffffffffffffffffffffffffffffffff1681526020018281526020019350505050600060405180830381600087803b158015610bbd57600080fd5b505af1158015610bd1573d6000803e3d6000fd5b505050506001905092915050565b60003373ffffffffffffffffffffffffffffffffffffffff16601160009054906101000a900473ffffffffffffffffffffffffffffffffffffffff1673ffffffffffffffffffffffffffffffffffffffff16141515610ca6576040517f08c379a000000000000000000000000000000000000000000000000000000000815260040180806020018281038252601a8152602001807f4d73672073656e6465722069736e277420746865206f776e657200000000000081525060200191505060405180910390fd5b81600b600085815260200190815260200160002060006101000a81548160ff0219169083151502179055506001905092915050565b60003373ffffffffffffffffffffffffffffffffffffffff16601160009054906101000a900473ffffffffffffffffffffffffffffffffffffffff1673ffffffffffffffffffffffffffffffffffffffff16141515610da2576040517f08c379a000000000000000000000000000000000000000000000000000000000815260040180806020018281038252601a8152602001807f4d73672073656e6465722069736e277420746865206f776e657200000000000081525060200191505060405180910390fd5b81600560006101000a81548173ffffffffffffffffffffffffffffffffffffffff021916908373ffffffffffffffffffffffffffffffffffffffff16021790555081600660006101000a81548173ffffffffffffffffffffffffffffffffffffffff021916908373ffffffffffffffffffffffffffffffffffffffff16021790555060019050919050565b6000600660009054906101000a900473ffffffffffffffffffffffffffffffffffffffff16905090565b6000806000806000610e676133f6565b73ffffffffffffffffffffffffffffffffffffffff163373ffffffffffffffffffffffffffffffffffffffff16141515610ea057600080fd5b60106000886000191660001916815260200190815260200160002054945060009350600e600086815260200190815260200160002060020160006001600d60008981526020019081526020016000205403815260200190815260200160002060000160009054906101000a900473ffffffffffffffffffffffffffffffffffffffff16925060001515600a600087815260200190815260200160002060009054906101000a900460ff1615151415610f6057610f5b85613754565b611397565b600091506000600f60008573ffffffffffffffffffffffffffffffffffffffff1673ffffffffffffffffffffffffffffffffffffffff168152602001908152602001600020600087815260200190815260200160002054111561102757600f60008473ffffffffffffffffffffffffffffffffffffffff1673ffffffffffffffffffffffffffffffffffffffff1681526020019081526020016000206000868152602001908152602001600020600081548092919060019003919050555060019350600191505b60011515821515141561127757600e600086815260200190815260200160002060010154600560009054906101000a900473ffffffffffffffffffffffffffffffffffffffff1673ffffffffffffffffffffffffffffffffffffffff1663f8b2cb4f856040518263ffffffff167c0100000000000000000000000000000000000000000000000000000000028152600401808273ffffffffffffffffffffffffffffffffffffffff1673ffffffffffffffffffffffffffffffffffffffff168152602001915050602060405180830381600087803b15801561110857600080fd5b505af115801561111c573d6000803e3d6000fd5b505050506040513d602081101561113257600080fd5b810190808051906020019092919050505010151561127657600560009054906101000a900473ffffffffffffffffffffffffffffffffffffffff1673ffffffffffffffffffffffffffffffffffffffff1663ac2ce9bc8430600e60008a8152602001908152602001600020600101546040518463ffffffff167c0100000000000000000000000000000000000000000000000000000000028152600401808473ffffffffffffffffffffffffffffffffffffffff1673ffffffffffffffffffffffffffffffffffffffff1681526020018373ffffffffffffffffffffffffffffffffffffffff1673ffffffffffffffffffffffffffffffffffffffff1681526020018281526020019350505050600060405180830381600087803b15801561125957600080fd5b505af115801561126d573d6000803e3d6000fd5b50505050600193505b5b831561138c57847fddc4a2725cf1f8877f0f114cec8c98a237f9bc152a04b5805d6241fdfd496b4b8442600180604051808573ffffffffffffffffffffffffffffffffffffffff1673ffffffffffffffffffffffffffffffffffffffff168152602001848152602001831515151581526020018215151515815260200194505050505060405180910390a261136560086000878152602001908152602001600020546040805190810160405280600381526020017f55524c0000000000000000000000000000000000000000000000000000000000815250602060405190810160405280600081525061399b565b90508460106000836000191660001916815260200190815260200160002081905550611396565b61139585613754565b5b5b6010600088600019166000191681526020019081526020016000206000905550505050505050565b60003373ffffffffffffffffffffffffffffffffffffffff16601160009054906101000a900473ffffffffffffffffffffffffffffffffffffffff1673ffffffffffffffffffffffffffffffffffffffff16141515611486576040517f08c379a000000000000000000000000000000000000000000000000000000000815260040180806020018281038252601a8152602001807f4d73672073656e6465722069736e277420746865206f776e657200000000000081525060200191505060405180910390fd5b6000861115156114fe576040517f08c379a000000000000000000000000000000000000000000000000000000000815260040180806020018281038252601b8152602001807f416374696f6e2070726963652063616e6e6f74206265207a65726f000000000081525060200191505060405180910390fd5b606060405190810160405280888152602001670de0b6b3a76400008802815260200160011515815250600e6000600c5481526020019081526020016000206000820151816000019080519060200190611558929190614864565b506020820151816001015560408201518160030160006101000a81548160ff0219169083151502179055509050508360086000600c5481526020019081526020016000208190555082600a6000600c54815260200190815260200160002060006101000a81548160ff02191690831515021790555081600b6000600c54815260200190815260200160002060006101000a81548160ff0219169083151502179055508460096000600c54815260200190815260200160002081905550600c547f259cce41447f493f2e316e75fbb88f4efed66d07c0dead3c1dfa7836a8cdd81388886040518080602001838152602001828103825284818151815260200191508051906020019080838360005b83811015611680578082015181840152602081019050611665565b50505050905090810190601f1680156116ad5780820380516001836020036101000a031916815260200191505b50935050505060405180910390a2600c60008154809291906001019190505550600190509695505050505050565b60003373ffffffffffffffffffffffffffffffffffffffff16601160009054906101000a900473ffffffffffffffffffffffffffffffffffffffff1673ffffffffffffffffffffffffffffffffffffffff161415156117a2576040517f08c379a000000000000000000000000000000000000000000000000000000000815260040180806020018281038252601a8152602001807f4d73672073656e6465722069736e277420746865206f776e657200000000000081525060200191505060405180910390fd5b81600a600085815260200190815260200160002060006101000a81548160ff0219169083151502179055506001905092915050565b505050565b6000600e600083815260200190815260200160002060030160009054906101000a900460ff169050919050565b60003373ffffffffffffffffffffffffffffffffffffffff16601160009054906101000a900473ffffffffffffffffffffffffffffffffffffffff1673ffffffffffffffffffffffffffffffffffffffff161415156118d0576040517f08c379a000000000000000000000000000000000000000000000000000000000815260040180806020018281038252601a8152602001807f4d73672073656e6465722069736e277420746865206f776e657200000000000081525060200191505060405180910390fd5b84600960008881526020019081526020016000208190555083600860008881526020019081526020016000208190555082600a600088815260200190815260200160002060006101000a81548160ff02191690831515021790555081600b600088815260200190815260200160002060006101000a81548160ff0219169083151502179055506001905095945050505050565b60606000806000806000600e6000888152602001908152602001600020600001600e600089815260200190815260200160002060010154600960008a815260200190815260200160002054600860008b815260200190815260200160002054600a60008c815260200190815260200160002060009054906101000a900460ff16600b60008d815260200190815260200160002060009054906101000a900460ff16858054600181600116156101000203166002900480601f016020809104026020016040519081016040528092919081815260200182805460018160011615610100020316600290048015611a995780601f10611a6e57610100808354040283529160200191611a99565b820191906000526020600020905b815481529060010190602001808311611a7c57829003601f168201915b5050505050955095509550955095509550955091939550919395565b6000600d6000838152602001908152602001600020549050919050565b6000806000611ae084613f3d565b9150600e600085815260200190815260200160002060020160006001600d600088815260200190815260200160002054038152602001908152602001600020905060011515600e600086815260200190815260200160002060030160009054906101000a900460ff161515148015611b7c575060011515600b600086815260200190815260200160002060009054906101000a900460ff161515145b8015611bd757508060000160009054906101000a900473ffffffffffffffffffffffffffffffffffffffff1673ffffffffffffffffffffffffffffffffffffffff163373ffffffffffffffffffffffffffffffffffffffff16145b8015611bf85750600115158160020160009054906101000a900460ff161515145b8015611c195750600115158160000160149054906101000a900460ff161515145b1515611c8d576040517f08c379a00000000000000000000000000000000000000000000000000000000081526004018080602001828103825260158152602001807f4661696c656420746f206175746f20726566756e64000000000000000000000081525060200191505060405180910390fd5b600560009054906101000a900473ffffffffffffffffffffffffffffffffffffffff1673ffffffffffffffffffffffffffffffffffffffff1663ac2ce9bc303385600e60008a815260200190815260200160002060010154036040518463ffffffff167c0100000000000000000000000000000000000000000000000000000000028152600401808473ffffffffffffffffffffffffffffffffffffffff1673ffffffffffffffffffffffffffffffffffffffff1681526020018373ffffffffffffffffffffffffffffffffffffffff1673ffffffffffffffffffffffffffffffffffffffff1681526020018281526020019350505050600060405180830381600087803b158015611d9e57600080fd5b505af1158015611db2573d6000803e3d6000fd5b5050505060008160000160146101000a81548160ff02191690831515021790555060018160000160156101000a81548160ff0219169083151502179055507f8392dd1994b5805073286c7466cefc588c77898d9b8a8cb59a02ed63811e09f484600e600087815260200190815260200160002060010154426000604051808581526020018481526020018381526020018215151515815260200194505050505060405180910390a15050919050565b6000600560009054906101000a900473ffffffffffffffffffffffffffffffffffffffff1673ffffffffffffffffffffffffffffffffffffffff1663ac2ce9bc3330600e6000878152602001908152602001600020600101546040518463ffffffff167c0100000000000000000000000000000000000000000000000000000000028152600401808473ffffffffffffffffffffffffffffffffffffffff1673ffffffffffffffffffffffffffffffffffffffff1681526020018373ffffffffffffffffffffffffffffffffffffffff1673ffffffffffffffffffffffffffffffffffffffff1681526020018281526020019350505050600060405180830381600087803b158015611f7257600080fd5b505af1158015611f86573d6000803e3d6000fd5b505050506009600083815260200190815260200160002054600f60003373ffffffffffffffffffffffffffffffffffffffff1673ffffffffffffffffffffffffffffffffffffffff16815260200190815260200160002060008481526020019081526020016000206000828254019250508190555060019050919050565b60003373ffffffffffffffffffffffffffffffffffffffff16601160009054906101000a900473ffffffffffffffffffffffffffffffffffffffff1673ffffffffffffffffffffffffffffffffffffffff161415156120cb576040517f08c379a000000000000000000000000000000000000000000000000000000000815260040180806020018281038252601a8152602001807f4d73672073656e6465722069736e277420746865206f776e657200000000000081525060200191505060405180910390fd5b60011515600e600085815260200190815260200160002060030160009054906101000a900460ff161515148015612126575060011515600b600085815260200190815260200160002060009054906101000a900460ff161515145b801561216d575060011515600e6000858152602001908152602001600020600201600084815260200190815260200160002060020160009054906101000a900460ff161515145b80156121b4575060001515600e6000858152602001908152602001600020600201600084815260200190815260200160002060000160159054906101000a900460ff161515145b151561224e576040517f08c379a00000000000000000000000000000000000000000000000000000000081526004018080602001828103825260288152602001807f526566756e64206d65726368616e74202d206661696c656420746f206973737581526020017f6520726566756e6400000000000000000000000000000000000000000000000081525060400191505060405180910390fd5b600560009054906101000a900473ffffffffffffffffffffffffffffffffffffffff1673ffffffffffffffffffffffffffffffffffffffff1663ac2ce9bc30600e6000878152602001908152602001600020600201600086815260200190815260200160002060000160009054906101000a900473ffffffffffffffffffffffffffffffffffffffff16600e6000888152602001908152602001600020600101546040518463ffffffff167c0100000000000000000000000000000000000000000000000000000000028152600401808473ffffffffffffffffffffffffffffffffffffffff1673ffffffffffffffffffffffffffffffffffffffff1681526020018373ffffffffffffffffffffffffffffffffffffffff1673ffffffffffffffffffffffffffffffffffffffff1681526020018281526020019350505050600060405180830381600087803b1580156123a757600080fd5b505af11580156123bb573d6000803e3d6000fd5b505050506000600e6000858152602001908152602001600020600201600084815260200190815260200160002060000160146101000a81548160ff0219169083151502179055506001600e6000858152602001908152602001600020600201600084815260200190815260200160002060000160156101000a81548160ff0219169083151502179055507f8392dd1994b5805073286c7466cefc588c77898d9b8a8cb59a02ed63811e09f483600e600086815260200190815260200160002060010154426000604051808581526020018481526020018381526020018215151515815260200194505050505060405180910390a192915050565b60008060011515600e600086815260200190815260200160002060030160009054906101000a900460ff16151514801561255e57506000600d600086815260200190815260200160002054148061255d575060001515600e600086815260200190815260200160002060020160006001600d60008981526020019081526020016000205403815260200190815260200160002060000160149054906101000a900460ff161515145b5b80156126d25750600e600085815260200190815260200160002060010154600560009054906101000a900473ffffffffffffffffffffffffffffffffffffffff1673ffffffffffffffffffffffffffffffffffffffff1663f8b2cb4f336040518263ffffffff167c0100000000000000000000000000000000000000000000000000000000028152600401808273ffffffffffffffffffffffffffffffffffffffff1673ffffffffffffffffffffffffffffffffffffffff168152602001915050602060405180830381600087803b15801561263957600080fd5b505af115801561264d573d6000803e3d6000fd5b505050506040513d602081101561266357600080fd5b81019080805190602001909291905050501015806126d157506000600f60003373ffffffffffffffffffffffffffffffffffffffff1673ffffffffffffffffffffffffffffffffffffffff168152602001908152602001600020600086815260200190815260200160002054115b5b801561273157506127176040805190810160405280600381526020017f55524c0000000000000000000000000000000000000000000000000000000000815250613fcf565b3073ffffffffffffffffffffffffffffffffffffffff1631115b15156127a5576040517f08c379a00000000000000000000000000000000000000000000000000000000081526004018080602001828103825260178152602001807f4661696c656420746f20656e61626c6520616374696f6e00000000000000000081525060200191505060405180910390fd5b6000600f60003373ffffffffffffffffffffffffffffffffffffffff1673ffffffffffffffffffffffffffffffffffffffff168152602001908152602001600020600086815260200190815260200160002054111561286457600f60003373ffffffffffffffffffffffffffffffffffffffff1673ffffffffffffffffffffffffffffffffffffffff16815260200190815260200160002060008581526020019081526020016000206000815480929190600190039190505550612a1d565b600560009054906101000a900473ffffffffffffffffffffffffffffffffffffffff1673ffffffffffffffffffffffffffffffffffffffff1663ac2ce9bc3330600e6000898152602001908152602001600020600101546040518463ffffffff167c0100000000000000000000000000000000000000000000000000000000028152600401808473ffffffffffffffffffffffffffffffffffffffff1673ffffffffffffffffffffffffffffffffffffffff1681526020018373ffffffffffffffffffffffffffffffffffffffff1673ffffffffffffffffffffffffffffffffffffffff1681526020018281526020019350505050600060405180830381600087803b15801561297357600080fd5b505af1158015612987573d6000803e3d6000fd5b50505050600160096000868152602001908152602001600020541115612a1c576001600960008681526020019081526020016000205403600f60003373ffffffffffffffffffffffffffffffffffffffff1673ffffffffffffffffffffffffffffffffffffffff1681526020019081526020016000206000868152602001908152602001600020600082825401925050819055505b5b60a0604051908101604052803373ffffffffffffffffffffffffffffffffffffffff16815260200160011515815260200160001515815260200142815260200160011515815250600e60008681526020019081526020016000206002016000600d600088815260200190815260200160002054815260200190815260200160002060008201518160000160006101000a81548173ffffffffffffffffffffffffffffffffffffffff021916908373ffffffffffffffffffffffffffffffffffffffff16021790555060208201518160000160146101000a81548160ff02191690831515021790555060408201518160000160156101000a81548160ff0219169083151502179055506060820151816001015560808201518160020160006101000a81548160ff021916908315150217905550905050837fddc4a2725cf1f8877f0f114cec8c98a237f9bc152a04b5805d6241fdfd496b4b334260006001604051808573ffffffffffffffffffffffffffffffffffffffff1673ffffffffffffffffffffffffffffffffffffffff168152602001848152602001831515151581526020018215151515815260200194505050505060405180910390a2600d600085815260200190815260200160002060008154809291906001019190505550612c5e60086000868152602001908152602001600020546040805190810160405280600381526020017f55524c0000000000000000000000000000000000000000000000000000000000815250602060405190810160405280600081525061399b565b90508360106000836000191660001916815260200190815260200160002081905550600191505092915050565b6000600f60008473ffffffffffffffffffffffffffffffffffffffff1673ffffffffffffffffffffffffffffffffffffffff168152602001908152602001600020600083815260200190815260200160002054905092915050565b6000600e600083815260200190815260200160002060020160006001600d60008681526020019081526020016000205403815260200190815260200160002060000160149054906101000a900460ff169050919050565b600060011515600e600084815260200190815260200160002060030160009054906101000a900460ff161515148015612dc7575060011515600e600084815260200190815260200160002060020160006001600d60008781526020019081526020016000205403815260200190815260200160002060000160149054906101000a900460ff161515145b8015612e5e57503373ffffffffffffffffffffffffffffffffffffffff16600e600084815260200190815260200160002060020160006001600d60008781526020019081526020016000205403815260200190815260200160002060000160009054906101000a900473ffffffffffffffffffffffffffffffffffffffff1673ffffffffffffffffffffffffffffffffffffffff16145b1515612e6957600080fd5b60a0604051908101604052803373ffffffffffffffffffffffffffffffffffffffff16815260200160001515815260200160001515815260200142815260200160011515815250600e60008481526020019081526020016000206002016000600d600086815260200190815260200160002054815260200190815260200160002060008201518160000160006101000a81548173ffffffffffffffffffffffffffffffffffffffff021916908373ffffffffffffffffffffffffffffffffffffffff16021790555060208201518160000160146101000a81548160ff02191690831515021790555060408201518160000160156101000a81548160ff0219169083151502179055506060820151816001015560808201518160020160006101000a81548160ff021916908315150217905550905050817fddc4a2725cf1f8877f0f114cec8c98a237f9bc152a04b5805d6241fdfd496b4b3342600080604051808573ffffffffffffffffffffffffffffffffffffffff1673ffffffffffffffffffffffffffffffffffffffff168152602001848152602001831515151581526020018215151515815260200194505050505060405180910390a2600d60008381526020019081526020016000206000815480929190600101919050555060019050919050565b60003373ffffffffffffffffffffffffffffffffffffffff16601160009054906101000a900473ffffffffffffffffffffffffffffffffffffffff1673ffffffffffffffffffffffffffffffffffffffff16141515613116576040517f08c379a000000000000000000000000000000000000000000000000000000000815260040180806020018281038252601a8152602001807f4d73672073656e6465722069736e277420746865206f776e657200000000000081525060200191505060405180910390fd5b8160086000858152602001908152602001600020819055506001905092915050565b60003373ffffffffffffffffffffffffffffffffffffffff16601160009054906101000a900473ffffffffffffffffffffffffffffffffffffffff1673ffffffffffffffffffffffffffffffffffffffff161415156131ff576040517f08c379a000000000000000000000000000000000000000000000000000000000815260040180806020018281038252601a8152602001807f4d73672073656e6465722069736e277420746865206f776e657200000000000081525060200191505060405180910390fd5b81600e6000858152602001908152602001600020600101819055506001905092915050565b60003373ffffffffffffffffffffffffffffffffffffffff16601160009054906101000a900473ffffffffffffffffffffffffffffffffffffffff1673ffffffffffffffffffffffffffffffffffffffff161415156132eb576040517f08c379a000000000000000000000000000000000000000000000000000000000815260040180806020018281038252601a8152602001807f4d73672073656e6465722069736e277420746865206f776e657200000000000081525060200191505060405180910390fd5b60011515600e600084815260200190815260200160002060030160009054906101000a900460ff16151514151561338a576040517f08c379a00000000000000000000000000000000000000000000000000000000081526004018080602001828103825260178152602001807f4661696c656420746f2064656c65746520616374696f6e00000000000000000081525060200191505060405180910390fd5b600e6000838152602001908152602001600020600080820160006133ae91906148e4565b60018201600090556003820160006101000a81549060ff02191690555050600d60008381526020019081526020016000206000905560019050919050565b6000600c54905090565b6000806000809054906101000a900473ffffffffffffffffffffffffffffffffffffffff1673ffffffffffffffffffffffffffffffffffffffff161480613466575060006134646000809054906101000a900473ffffffffffffffffffffffffffffffffffffffff1661439f565b145b156134775761347560006143aa565b505b6000809054906101000a900473ffffffffffffffffffffffffffffffffffffffff1673ffffffffffffffffffffffffffffffffffffffff166338cc48316040518163ffffffff167c0100000000000000000000000000000000000000000000000000000000028152600401602060405180830381600087803b1580156134fc57600080fd5b505af1158015613510573d6000803e3d6000fd5b505050506040513d602081101561352657600080fd5b810190808051906020019092919050505073ffffffffffffffffffffffffffffffffffffffff16600160009054906101000a900473ffffffffffffffffffffffffffffffffffffffff1673ffffffffffffffffffffffffffffffffffffffff1614151561368e576000809054906101000a900473ffffffffffffffffffffffffffffffffffffffff1673ffffffffffffffffffffffffffffffffffffffff166338cc48316040518163ffffffff167c0100000000000000000000000000000000000000000000000000000000028152600401602060405180830381600087803b15801561361257600080fd5b505af1158015613626573d6000803e3d6000fd5b505050506040513d602081101561363c57600080fd5b8101908080519060200190929190505050600160006101000a81548173ffffffffffffffffffffffffffffffffffffffff021916908373ffffffffffffffffffffffffffffffffffffffff1602179055505b600160009054906101000a900473ffffffffffffffffffffffffffffffffffffffff1673ffffffffffffffffffffffffffffffffffffffff1663c281d19e6040518163ffffffff167c0100000000000000000000000000000000000000000000000000000000028152600401602060405180830381600087803b15801561371457600080fd5b505af1158015613728573d6000803e3d6000fd5b505050506040513d602081101561373e57600080fd5b8101908080519060200190929190505050905090565b6000600e600083815260200190815260200160002060020160006001600d600086815260200190815260200160002054038152602001908152602001600020905060a0604051908101604052808260000160009054906101000a900473ffffffffffffffffffffffffffffffffffffffff1673ffffffffffffffffffffffffffffffffffffffff16815260200160001515815260200160001515815260200142815260200160011515815250600e60008481526020019081526020016000206002016000600d600086815260200190815260200160002054815260200190815260200160002060008201518160000160006101000a81548173ffffffffffffffffffffffffffffffffffffffff021916908373ffffffffffffffffffffffffffffffffffffffff16021790555060208201518160000160146101000a81548160ff02191690831515021790555060408201518160000160156101000a81548160ff0219169083151502179055506060820151816001015560808201518160020160006101000a81548160ff021916908315150217905550905050817fddc4a2725cf1f8877f0f114cec8c98a237f9bc152a04b5805d6241fdfd496b4b334260016000604051808573ffffffffffffffffffffffffffffffffffffffff1673ffffffffffffffffffffffffffffffffffffffff168152602001848152602001831515151581526020018215151515815260200194505050505060405180910390a2600d6000838152602001908152602001600020600081548092919060010191905055505050565b60008060008060009054906101000a900473ffffffffffffffffffffffffffffffffffffffff1673ffffffffffffffffffffffffffffffffffffffff161480613a0d57506000613a0b6000809054906101000a900473ffffffffffffffffffffffffffffffffffffffff1661439f565b145b15613a1e57613a1c60006143aa565b505b6000809054906101000a900473ffffffffffffffffffffffffffffffffffffffff1673ffffffffffffffffffffffffffffffffffffffff166338cc48316040518163ffffffff167c0100000000000000000000000000000000000000000000000000000000028152600401602060405180830381600087803b158015613aa357600080fd5b505af1158015613ab7573d6000803e3d6000fd5b505050506040513d6020811015613acd57600080fd5b810190808051906020019092919050505073ffffffffffffffffffffffffffffffffffffffff16600160009054906101000a900473ffffffffffffffffffffffffffffffffffffffff1673ffffffffffffffffffffffffffffffffffffffff16141515613c35576000809054906101000a900473ffffffffffffffffffffffffffffffffffffffff1673ffffffffffffffffffffffffffffffffffffffff166338cc48316040518163ffffffff167c0100000000000000000000000000000000000000000000000000000000028152600401602060405180830381600087803b158015613bb957600080fd5b505af1158015613bcd573d6000803e3d6000fd5b505050506040513d6020811015613be357600080fd5b8101908080519060200190929190505050600160006101000a81548173ffffffffffffffffffffffffffffffffffffffff021916908373ffffffffffffffffffffffffffffffffffffffff1602179055505b600160009054906101000a900473ffffffffffffffffffffffffffffffffffffffff1673ffffffffffffffffffffffffffffffffffffffff1663524f3889856040518263ffffffff167c01000000000000000000000000000000000000000000000000000000000281526004018080602001828103825283818151815260200191508051906020019080838360005b83811015613cdf578082015181840152602081019050613cc4565b50505050905090810190601f168015613d0c5780820380516001836020036101000a031916815260200191505b5092505050602060405180830381600087803b158015613d2b57600080fd5b505af1158015613d3f573d6000803e3d6000fd5b505050506040513d6020811015613d5557600080fd5b8101908080519060200190929190505050905062030d403a02670de0b6b3a764000001811115613d8b5760006001029150613f35565b600160009054906101000a900473ffffffffffffffffffffffffffffffffffffffff1673ffffffffffffffffffffffffffffffffffffffff1663adf59f99828787876040518563ffffffff167c0100000000000000000000000000000000000000000000000000000000028152600401808481526020018060200180602001838103835285818151815260200191508051906020019080838360005b83811015613e42578082015181840152602081019050613e27565b50505050905090810190601f168015613e6f5780820380516001836020036101000a031916815260200191505b50838103825284818151815260200191508051906020019080838360005b83811015613ea8578082015181840152602081019050613e8d565b50505050905090810190601f168015613ed55780820380516001836020036101000a031916815260200191505b50955050505050506020604051808303818588803b158015613ef657600080fd5b505af1158015613f0a573d6000803e3d6000fd5b50505050506040513d6020811015613f2157600080fd5b810190808051906020019092919050505091505b509392505050565b600080600080600e600086815260200190815260200160002060010154925060086000868152602001908152602001600020549150600e600086815260200190815260200160002060020160006001600d600089815260200190815260200160002054038152602001908152602001600020600101544203905081838202811515613fc457fe5b049350505050919050565b6000806000809054906101000a900473ffffffffffffffffffffffffffffffffffffffff1673ffffffffffffffffffffffffffffffffffffffff16148061403f5750600061403d6000809054906101000a900473ffffffffffffffffffffffffffffffffffffffff1661439f565b145b156140505761404e60006143aa565b505b6000809054906101000a900473ffffffffffffffffffffffffffffffffffffffff1673ffffffffffffffffffffffffffffffffffffffff166338cc48316040518163ffffffff167c0100000000000000000000000000000000000000000000000000000000028152600401602060405180830381600087803b1580156140d557600080fd5b505af11580156140e9573d6000803e3d6000fd5b505050506040513d60208110156140ff57600080fd5b810190808051906020019092919050505073ffffffffffffffffffffffffffffffffffffffff16600160009054906101000a900473ffffffffffffffffffffffffffffffffffffffff1673ffffffffffffffffffffffffffffffffffffffff16141515614267576000809054906101000a900473ffffffffffffffffffffffffffffffffffffffff1673ffffffffffffffffffffffffffffffffffffffff166338cc48316040518163ffffffff167c0100000000000000000000000000000000000000000000000000000000028152600401602060405180830381600087803b1580156141eb57600080fd5b505af11580156141ff573d6000803e3d6000fd5b505050506040513d602081101561421557600080fd5b8101908080519060200190929190505050600160006101000a81548173ffffffffffffffffffffffffffffffffffffffff021916908373ffffffffffffffffffffffffffffffffffffffff1602179055505b600160009054906101000a900473ffffffffffffffffffffffffffffffffffffffff1673ffffffffffffffffffffffffffffffffffffffff1663524f3889836040518263ffffffff167c01000000000000000000000000000000000000000000000000000000000281526004018080602001828103825283818151815260200191508051906020019080838360005b838110156143115780820151818401526020810190506142f6565b50505050905090810190601f16801561433e5780820380516001836020036101000a031916815260200191505b5092505050602060405180830381600087803b15801561435d57600080fd5b505af1158015614371573d6000803e3d6000fd5b505050506040513d602081101561438757600080fd5b81019080805190602001909291905050509050919050565b6000813b9050919050565b60006143b46143bb565b9050919050565b6000806143db731d3b2638a7cc9f2cb3d298a3da7a90b67e5506ed61439f565b111561447c57731d3b2638a7cc9f2cb3d298a3da7a90b67e5506ed6000806101000a81548173ffffffffffffffffffffffffffffffffffffffff021916908373ffffffffffffffffffffffffffffffffffffffff1602179055506144736040805190810160405280600b81526020017f6574685f6d61696e6e657400000000000000000000000000000000000000000081525061484a565b60019050614847565b600061449b73c03a2615d5efaf5f49f60b7bb6583eaec212fdf161439f565b111561453c5773c03a2615d5efaf5f49f60b7bb6583eaec212fdf16000806101000a81548173ffffffffffffffffffffffffffffffffffffffff021916908373ffffffffffffffffffffffffffffffffffffffff1602179055506145336040805190810160405280600c81526020017f6574685f726f707374656e33000000000000000000000000000000000000000081525061484a565b60019050614847565b600061455b73b7a07bcf2ba2f2703b24c0691b5278999c59ac7e61439f565b11156145fc5773b7a07bcf2ba2f2703b24c0691b5278999c59ac7e6000806101000a81548173ffffffffffffffffffffffffffffffffffffffff021916908373ffffffffffffffffffffffffffffffffffffffff1602179055506145f36040805190810160405280600981526020017f6574685f6b6f76616e000000000000000000000000000000000000000000000081525061484a565b60019050614847565b600061461b73146500cfd35b22e4a392fe0adc06de1a1368ed4861439f565b11156146bc5773146500cfd35b22e4a392fe0adc06de1a1368ed486000806101000a81548173ffffffffffffffffffffffffffffffffffffffff021916908373ffffffffffffffffffffffffffffffffffffffff1602179055506146b36040805190810160405280600b81526020017f6574685f72696e6b65627900000000000000000000000000000000000000000081525061484a565b60019050614847565b60006146db736f485c8bf6fc43ea212e93bbf8ce046c7f1cb47561439f565b111561473e57736f485c8bf6fc43ea212e93bbf8ce046c7f1cb4756000806101000a81548173ffffffffffffffffffffffffffffffffffffffff021916908373ffffffffffffffffffffffffffffffffffffffff16021790555060019050614847565b600061475d7320e12a1f859b3feae5fb2a0a32c18f5a65555bbf61439f565b11156147c0577320e12a1f859b3feae5fb2a0a32c18f5a65555bbf6000806101000a81548173ffffffffffffffffffffffffffffffffffffffff021916908373ffffffffffffffffffffffffffffffffffffffff16021790555060019050614847565b60006147df7351efaf4c8b3c9afbd5ab9f4bbc82784ab6ef8faa61439f565b1115614842577351efaf4c8b3c9afbd5ab9f4bbc82784ab6ef8faa6000806101000a81548173ffffffffffffffffffffffffffffffffffffffff021916908373ffffffffffffffffffffffffffffffffffffffff16021790555060019050614847565b600090505b90565b806002908051906020019061486092919061492c565b5050565b828054600181600116156101000203166002900490600052602060002090601f016020900481019282601f106148a557805160ff19168380011785556148d3565b828001600101855582156148d3579182015b828111156148d25782518255916020019190600101906148b7565b5b5090506148e091906149ac565b5090565b50805460018160011615610100020316600290046000825580601f1061490a5750614929565b601f01602090049060005260206000209081019061492891906149ac565b5b50565b828054600181600116156101000203166002900490600052602060002090601f016020900481019282601f1061496d57805160ff191683800117855561499b565b8280016001018555821561499b579182015b8281111561499a57825182559160200191906001019061497f565b5b5090506149a891906149ac565b5090565b6149ce91905b808211156149ca5760008160009055506001016149b2565b5090565b905600a165627a7a7230582078157278dee67705f22f926afb6759a8473ba16d41eed65d8542349e745c698a0029a165627a7a723058205ff75f9de7027f1407a868022b2fb0b389c2167473e759b1e4813bce2d918dff0029",
  "source": "pragma solidity ^0.4.24;\n\nimport \"./Device.sol\";\nimport \"./Rawbot.sol\";\n\ncontract DeviceSpawner {\n    event DeviceAdd(\n        address indexed _sender,\n        address indexed _contract\n    );\n\n    address private rawbot_address;\n    Rawbot private rawbot;\n\n    mapping(uint256 => address) private devices;\n    mapping(uint256 => address) private merchants;\n    mapping(address => bool) private devices_access;\n\n    uint256 private total_devices = 0;\n    uint256 private total_merchants = 0;\n\n    mapping(address => Merchant) private merchant;\n    mapping(address => DeviceInfo) private infoOf;\n    mapping(address => uint256) private total_devices_of;\n\n    struct Merchant {\n        mapping(uint256 => address) devices;\n        bool available;\n    }\n\n    struct DeviceInfo {\n        bytes32 serial_number;\n        bytes32 name;\n        address owner;\n        bytes32 owner_name;\n        address manager;\n        bytes32 country;\n        bytes32 location;\n        uint256 latitude;\n        uint256 longitude;\n        uint256 altitude;\n        uint256 accuracy;\n        string json;\n        bool available;\n    }\n\n    constructor(address _input_address) public payable {\n        rawbot_address = _input_address;\n        rawbot = Rawbot(_input_address);\n    }\n\n    function getRawbotAddress() public view returns (address _rawbot_address){\n        return rawbot_address;\n    }\n\n    function addDevice(\n        address _manager,\n        bytes32 _device_serial_number,\n        bytes32 _device_name,\n        bytes32 _owner_name,\n        bytes32 _country,\n        bytes32 _location,\n        uint256 _latitude,\n        uint256 _longitude,\n        uint256 _altitude,\n        uint256 _accuracy,\n        string json\n    ) public returns (Device __spawned_device) {\n        require(\n            _manager != 0x0\n            && _device_serial_number != 0x0\n            && _device_name != 0x0\n            && _owner_name != 0x0\n            && _country != 0x0\n            && _location != 0x0\n            && _latitude > 0\n            && _longitude > 0\n            && _altitude >= 0\n            && _accuracy >= 0\n        );\n        rawbot.modifyBalance(msg.sender, rawbot_address, 100 * 1e18);\n        Device device = new Device(msg.sender, rawbot_address);\n        infoOf[device] = DeviceInfo(\n            _device_serial_number,\n            _device_name,\n            msg.sender,\n            _owner_name,\n            _manager,\n            _country,\n            _location,\n            _latitude,\n            _longitude,\n            _altitude,\n            _accuracy,\n            json,\n            true\n        );\n\n        emit DeviceAdd(msg.sender, device);\n        return device;\n    }\n\n    function hasAccess(address _address) external view returns (bool __allowed){\n        return infoOf[_address].available;\n    }\n\n    /**\n        Device information\n    **/\n\n    function getContractBalance() public view returns (uint256 __balance){\n        return address(this).balance;\n    }\n\n    function getDeviceOwner(address device_address) public view returns (address __device_owner) {\n        return infoOf[device_address].owner;\n    }\n\n    function getDeviceManager(address device_address) public view returns (address __device_manager) {\n        return infoOf[device_address].manager;\n    }\n\n    function getDeviceBalance(address device_address) public view returns (uint256 __device_balance){\n        return address(device_address).balance;\n    }\n\n    function setDeviceManager(address device_address, address device_manager) public returns (bool success){\n        require(getDeviceOwner(device_address) == msg.sender, \"Msg sender isn't the owner.\");\n        infoOf[device_address].manager = device_manager;\n        return true;\n    }\n\n    function getDeviceInformation(address device_address)\n    public view\n    returns (\n        bytes32 serial_number,\n        bytes32 name,\n        address owner,\n        bytes32 owner_name,\n        bytes32 country,\n        bytes32 location,\n        uint256 latitude,\n        uint256 longitude,\n        uint256 altitude,\n        uint256 accuracy,\n        string json\n    )\n    {\n        DeviceInfo info = infoOf[device_address];\n        return (\n        info.serial_number,\n        info.name,\n        info.owner,\n        info.owner_name,\n        info.country,\n        info.location,\n        info.latitude,\n        info.longitude,\n        info.altitude,\n        info.accuracy,\n        info.json\n        );\n    }\n}",
  "sourcePath": "/Users/hassanjawhar/Desktop/Workspace/rawbot/smart-contract/contracts/DeviceSpawner.sol",
  "compiler": {
    "name": "solc",
    "version": "0.4.24+commit.e67f0147.Emscripten.clang"
  },
  "schemaVersion": "2.0.1",
  "updatedAt": "2019-01-23T17:49:09.975Z"
}