{
  "contractName": "Device",
  "abi": [
    {
      "inputs": [
        {
          "name": "__owner",
          "type": "address"
        },
        {
          "name": "__rawbot_address",
          "type": "address"
        }
      ],
      "payable": true,
      "stateMutability": "payable",
      "type": "constructor"
    },
    {
      "payable": true,
      "stateMutability": "payable",
      "type": "fallback"
    },
    {
      "anonymous": false,
      "inputs": [
        {
          "indexed": false,
          "name": "_action_id",
          "type": "uint256"
        },
        {
          "indexed": false,
          "name": "_action_price",
          "type": "uint256"
        },
        {
          "indexed": false,
          "name": "_time",
          "type": "uint256"
        },
        {
          "indexed": false,
          "name": "automatic",
          "type": "bool"
        }
      ],
      "name": "RefundEvent",
      "type": "event"
    },
    {
      "anonymous": false,
      "inputs": [
        {
          "indexed": true,
          "name": "id",
          "type": "uint256"
        },
        {
          "indexed": false,
          "name": "name",
          "type": "string"
        },
        {
          "indexed": false,
          "name": "price",
          "type": "uint256"
        }
      ],
      "name": "ActionAdd",
      "type": "event"
    },
    {
      "anonymous": false,
      "inputs": [
        {
          "indexed": true,
          "name": "id",
          "type": "uint256"
        },
        {
          "indexed": false,
          "name": "from",
          "type": "address"
        },
        {
          "indexed": false,
          "name": "time",
          "type": "uint256"
        },
        {
          "indexed": false,
          "name": "recurrent",
          "type": "bool"
        },
        {
          "indexed": false,
          "name": "enable",
          "type": "bool"
        }
      ],
      "name": "ActionLogs",
      "type": "event"
    },
    {
      "constant": false,
      "inputs": [
        {
          "name": "name",
          "type": "string"
        },
        {
          "name": "price",
          "type": "uint256"
        },
        {
          "name": "occurrences",
          "type": "uint256"
        },
        {
          "name": "duration",
          "type": "uint256"
        },
        {
          "name": "recurring",
          "type": "bool"
        },
        {
          "name": "refundable",
          "type": "bool"
        }
      ],
      "name": "addAction",
      "outputs": [
        {
          "name": "success",
          "type": "bool"
        }
      ],
      "payable": false,
      "stateMutability": "nonpayable",
      "type": "function"
    },
    {
      "constant": false,
      "inputs": [
        {
          "name": "id",
          "type": "uint256"
        },
        {
          "name": "price",
          "type": "uint256"
        }
      ],
      "name": "setActionPrice",
      "outputs": [
        {
          "name": "success",
          "type": "bool"
        }
      ],
      "payable": false,
      "stateMutability": "nonpayable",
      "type": "function"
    },
    {
      "constant": false,
      "inputs": [
        {
          "name": "id",
          "type": "uint256"
        },
        {
          "name": "duration",
          "type": "uint256"
        }
      ],
      "name": "setActionDuration",
      "outputs": [
        {
          "name": "success",
          "type": "bool"
        }
      ],
      "payable": false,
      "stateMutability": "nonpayable",
      "type": "function"
    },
    {
      "constant": false,
      "inputs": [
        {
          "name": "id",
          "type": "uint256"
        },
        {
          "name": "recurring",
          "type": "bool"
        }
      ],
      "name": "setActionRecurring",
      "outputs": [
        {
          "name": "success",
          "type": "bool"
        }
      ],
      "payable": false,
      "stateMutability": "nonpayable",
      "type": "function"
    },
    {
      "constant": false,
      "inputs": [
        {
          "name": "id",
          "type": "uint256"
        },
        {
          "name": "refundable",
          "type": "bool"
        }
      ],
      "name": "setActionRefundable",
      "outputs": [
        {
          "name": "success",
          "type": "bool"
        }
      ],
      "payable": false,
      "stateMutability": "nonpayable",
      "type": "function"
    },
    {
      "constant": false,
      "inputs": [
        {
          "name": "id",
          "type": "uint256"
        },
        {
          "name": "occurrences",
          "type": "uint256"
        },
        {
          "name": "duration",
          "type": "uint256"
        },
        {
          "name": "recurring",
          "type": "bool"
        },
        {
          "name": "refundable",
          "type": "bool"
        }
      ],
      "name": "setActionProperties",
      "outputs": [
        {
          "name": "success",
          "type": "bool"
        }
      ],
      "payable": false,
      "stateMutability": "nonpayable",
      "type": "function"
    },
    {
      "constant": false,
      "inputs": [
        {
          "name": "id",
          "type": "uint256"
        }
      ],
      "name": "buyAction",
      "outputs": [
        {
          "name": "success",
          "type": "bool"
        }
      ],
      "payable": false,
      "stateMutability": "nonpayable",
      "type": "function"
    },
    {
      "constant": false,
      "inputs": [
        {
          "name": "id",
          "type": "uint256"
        },
        {
          "name": "comment",
          "type": "string"
        }
      ],
      "name": "enableAction",
      "outputs": [
        {
          "name": "success",
          "type": "bool"
        }
      ],
      "payable": false,
      "stateMutability": "nonpayable",
      "type": "function"
    },
    {
      "constant": false,
      "inputs": [
        {
          "name": "id",
          "type": "uint256"
        }
      ],
      "name": "disableAction",
      "outputs": [
        {
          "name": "success",
          "type": "bool"
        }
      ],
      "payable": false,
      "stateMutability": "nonpayable",
      "type": "function"
    },
    {
      "constant": false,
      "inputs": [
        {
          "name": "id",
          "type": "uint256"
        }
      ],
      "name": "deleteAction",
      "outputs": [
        {
          "name": "",
          "type": "bool"
        }
      ],
      "payable": false,
      "stateMutability": "nonpayable",
      "type": "function"
    },
    {
      "constant": false,
      "inputs": [
        {
          "name": "value",
          "type": "uint256"
        },
        {
          "name": "to",
          "type": "address"
        }
      ],
      "name": "withdraw",
      "outputs": [
        {
          "name": "success",
          "type": "bool"
        }
      ],
      "payable": false,
      "stateMutability": "nonpayable",
      "type": "function"
    },
    {
      "constant": false,
      "inputs": [
        {
          "name": "id",
          "type": "uint256"
        },
        {
          "name": "hid",
          "type": "uint256"
        }
      ],
      "name": "refundMerchant",
      "outputs": [
        {
          "name": "success",
          "type": "bool"
        }
      ],
      "payable": false,
      "stateMutability": "nonpayable",
      "type": "function"
    },
    {
      "constant": false,
      "inputs": [
        {
          "name": "id",
          "type": "uint256"
        }
      ],
      "name": "refundCustomer",
      "outputs": [
        {
          "name": "success",
          "type": "bool"
        }
      ],
      "payable": false,
      "stateMutability": "nonpayable",
      "type": "function"
    },
    {
      "constant": false,
      "inputs": [
        {
          "name": "myid",
          "type": "bytes32"
        },
        {
          "name": "result",
          "type": "string"
        },
        {
          "name": "proof",
          "type": "bytes"
        }
      ],
      "name": "__callback",
      "outputs": [],
      "payable": false,
      "stateMutability": "nonpayable",
      "type": "function"
    },
    {
      "constant": false,
      "inputs": [
        {
          "name": "myid",
          "type": "bytes32"
        },
        {
          "name": "result",
          "type": "string"
        }
      ],
      "name": "__callback",
      "outputs": [],
      "payable": false,
      "stateMutability": "nonpayable",
      "type": "function"
    },
    {
      "constant": true,
      "inputs": [],
      "name": "getRawbotAddress",
      "outputs": [
        {
          "name": "_rawbot_address",
          "type": "address"
        }
      ],
      "payable": false,
      "stateMutability": "view",
      "type": "function"
    },
    {
      "constant": false,
      "inputs": [
        {
          "name": "__rawbot_address",
          "type": "address"
        }
      ],
      "name": "setRawbot",
      "outputs": [
        {
          "name": "success",
          "type": "bool"
        }
      ],
      "payable": false,
      "stateMutability": "nonpayable",
      "type": "function"
    },
    {
      "constant": true,
      "inputs": [
        {
          "name": "id",
          "type": "uint256"
        }
      ],
      "name": "getDeviceAction",
      "outputs": [
        {
          "name": "name",
          "type": "string"
        },
        {
          "name": "price",
          "type": "uint256"
        },
        {
          "name": "occurrences",
          "type": "uint256"
        },
        {
          "name": "duration",
          "type": "uint256"
        },
        {
          "name": "recurring",
          "type": "bool"
        },
        {
          "name": "refundable",
          "type": "bool"
        }
      ],
      "payable": false,
      "stateMutability": "view",
      "type": "function"
    },
    {
      "constant": true,
      "inputs": [],
      "name": "getTotalActions",
      "outputs": [
        {
          "name": "total_actions",
          "type": "uint256"
        }
      ],
      "payable": false,
      "stateMutability": "view",
      "type": "function"
    },
    {
      "constant": true,
      "inputs": [
        {
          "name": "action_id",
          "type": "uint256"
        }
      ],
      "name": "getTotalActionsHistoryOf",
      "outputs": [
        {
          "name": "length",
          "type": "uint256"
        }
      ],
      "payable": false,
      "stateMutability": "view",
      "type": "function"
    },
    {
      "constant": true,
      "inputs": [
        {
          "name": "action_id",
          "type": "uint256"
        }
      ],
      "name": "isEnabled",
      "outputs": [
        {
          "name": "enabled",
          "type": "bool"
        }
      ],
      "payable": false,
      "stateMutability": "view",
      "type": "function"
    },
    {
      "constant": true,
      "inputs": [
        {
          "name": "action_id",
          "type": "uint256"
        }
      ],
      "name": "isAvailable",
      "outputs": [
        {
          "name": "available",
          "type": "bool"
        }
      ],
      "payable": false,
      "stateMutability": "view",
      "type": "function"
    },
    {
      "constant": true,
      "inputs": [
        {
          "name": "user",
          "type": "address"
        },
        {
          "name": "id",
          "type": "uint256"
        }
      ],
      "name": "getUserActionOccurrence",
      "outputs": [
        {
          "name": "amount",
          "type": "uint256"
        }
      ],
      "payable": false,
      "stateMutability": "view",
      "type": "function"
    }
  ],
  "bytecode": "0x60806040526000600c55604051604080614b5a8339810180604052810190808051906020019092919080519060200190929190505050736f485c8bf6fc43ea212e93bbf8ce046c7f1cb4756000806101000a81548173ffffffffffffffffffffffffffffffffffffffff021916908373ffffffffffffffffffffffffffffffffffffffff16021790555081601160006101000a81548173ffffffffffffffffffffffffffffffffffffffff021916908373ffffffffffffffffffffffffffffffffffffffff16021790555080600560006101000a81548173ffffffffffffffffffffffffffffffffffffffff021916908373ffffffffffffffffffffffffffffffffffffffff16021790555080600660006101000a81548173ffffffffffffffffffffffffffffffffffffffff021916908373ffffffffffffffffffffffffffffffffffffffff16021790555050506149fd8061015d6000396000f300608060405260043610610132576000357c0100000000000000000000000000000000000000000000000000000000900463ffffffff168062f714ce146101345780630e504933146101995780631a0c8b08146101ea5780632483142e1461024557806327dc297e1461029c5780632a22e986146103135780632fbbad61146103ca57806338bbfa501461041b5780633a178d99146104d857806372e343e81461051d5780637684bcc61461058e5780637ed6a8ad1461065f578063917d619a146106a0578063a969ecbf146106e5578063ae73a61e1461072a578063bf38e54514610779578063c2a479ce14610804578063c783034c14610865578063cab7ca41146108aa578063ce981178146108ef578063d72c4c651461093e578063df7dfef71461098d578063fcc03293146109d2575b005b34801561014057600080fd5b5061017f60048036038101908080359060200190929190803573ffffffffffffffffffffffffffffffffffffffff1690602001909291905050506109fd565b604051808215151515815260200191505060405180910390f35b3480156101a557600080fd5b506101d060048036038101908080359060200190929190803515159060200190929190505050610bdf565b604051808215151515815260200191505060405180910390f35b3480156101f657600080fd5b5061022b600480360381019080803573ffffffffffffffffffffffffffffffffffffffff169060200190929190505050610cdb565b604051808215151515815260200191505060405180910390f35b34801561025157600080fd5b5061025a610e2d565b604051808273ffffffffffffffffffffffffffffffffffffffff1673ffffffffffffffffffffffffffffffffffffffff16815260200191505060405180910390f35b3480156102a857600080fd5b506103116004803603810190808035600019169060200190929190803590602001908201803590602001908080601f0160208091040260200160405190810160405280939291908181526020018383808284378201915050505050509192919290505050610e57565b005b34801561031f57600080fd5b506103b0600480360381019080803590602001908201803590602001908080601f01602080910402602001604051908101604052809392919081815260200183838082843782019150505050505091929192908035906020019092919080359060200190929190803590602001909291908035151590602001909291908035151590602001909291905050506113bf565b604051808215151515815260200191505060405180910390f35b3480156103d657600080fd5b50610401600480360381019080803590602001909291908035151590602001909291905050506116db565b604051808215151515815260200191505060405180910390f35b34801561042757600080fd5b506104d66004803603810190808035600019169060200190929190803590602001908201803590602001908080601f0160208091040260200160405190810160405280939291908181526020018383808284378201915050505050509192919290803590602001908201803590602001908080601f01602080910402602001604051908101604052809392919081815260200183838082843782019150505050505091929192905050506117d7565b005b3480156104e457600080fd5b50610503600480360381019080803590602001909291905050506117dc565b604051808215151515815260200191505060405180910390f35b34801561052957600080fd5b50610574600480360381019080803590602001909291908035906020019092919080359060200190929190803515159060200190929190803515159060200190929190505050611809565b604051808215151515815260200191505060405180910390f35b34801561059a57600080fd5b506105b960048036038101908080359060200190929190505050611963565b60405180806020018781526020018681526020018581526020018415151515815260200183151515158152602001828103825288818151815260200191508051906020019080838360005b8381101561061f578082015181840152602081019050610604565b50505050905090810190601f16801561064c5780820380516001836020036101000a031916815260200191505b5097505050505050505060405180910390f35b34801561066b57600080fd5b5061068a60048036038101908080359060200190929190505050611ab5565b6040518082815260200191505060405180910390f35b3480156106ac57600080fd5b506106cb60048036038101908080359060200190929190505050611ad2565b604051808215151515815260200191505060405180910390f35b3480156106f157600080fd5b5061071060048036038101908080359060200190929190505050611e61565b604051808215151515815260200191505060405180910390f35b34801561073657600080fd5b5061075f6004803603810190808035906020019092919080359060200190929190505050612004565b604051808215151515815260200191505060405180910390f35b34801561078557600080fd5b506107ea60048036038101908080359060200190929190803590602001908201803590602001908080601f01602080910402602001604051908101604052809392919081815260200183838082843782019150505050505091929192905050506124b5565b604051808215151515815260200191505060405180910390f35b34801561081057600080fd5b5061084f600480360381019080803573ffffffffffffffffffffffffffffffffffffffff16906020019092919080359060200190929190505050612c8b565b6040518082815260200191505060405180910390f35b34801561087157600080fd5b5061089060048036038101908080359060200190929190505050612ce6565b604051808215151515815260200191505060405180910390f35b3480156108b657600080fd5b506108d560048036038101908080359060200190929190505050612d3d565b604051808215151515815260200191505060405180910390f35b3480156108fb57600080fd5b50610924600480360381019080803590602001909291908035906020019092919050505061304f565b604051808215151515815260200191505060405180910390f35b34801561094a57600080fd5b506109736004803603810190808035906020019092919080359060200190929190505050613138565b604051808215151515815260200191505060405180910390f35b34801561099957600080fd5b506109b860048036038101908080359060200190929190505050613224565b604051808215151515815260200191505060405180910390f35b3480156109de57600080fd5b506109e76133ec565b6040518082815260200191505060405180910390f35b60003373ffffffffffffffffffffffffffffffffffffffff16601160009054906101000a900473ffffffffffffffffffffffffffffffffffffffff1673ffffffffffffffffffffffffffffffffffffffff16141515610ac4576040517f08c379a000000000000000000000000000000000000000000000000000000000815260040180806020018281038252601a8152602001807f4d73672073656e6465722069736e277420746865206f776e657200000000000081525060200191505060405180910390fd5b600560009054906101000a900473ffffffffffffffffffffffffffffffffffffffff1673ffffffffffffffffffffffffffffffffffffffff1663ac2ce9bc3084866040518463ffffffff167c0100000000000000000000000000000000000000000000000000000000028152600401808473ffffffffffffffffffffffffffffffffffffffff1673ffffffffffffffffffffffffffffffffffffffff1681526020018373ffffffffffffffffffffffffffffffffffffffff1673ffffffffffffffffffffffffffffffffffffffff1681526020018281526020019350505050600060405180830381600087803b158015610bbd57600080fd5b505af1158015610bd1573d6000803e3d6000fd5b505050506001905092915050565b60003373ffffffffffffffffffffffffffffffffffffffff16601160009054906101000a900473ffffffffffffffffffffffffffffffffffffffff1673ffffffffffffffffffffffffffffffffffffffff16141515610ca6576040517f08c379a000000000000000000000000000000000000000000000000000000000815260040180806020018281038252601a8152602001807f4d73672073656e6465722069736e277420746865206f776e657200000000000081525060200191505060405180910390fd5b81600b600085815260200190815260200160002060006101000a81548160ff0219169083151502179055506001905092915050565b60003373ffffffffffffffffffffffffffffffffffffffff16601160009054906101000a900473ffffffffffffffffffffffffffffffffffffffff1673ffffffffffffffffffffffffffffffffffffffff16141515610da2576040517f08c379a000000000000000000000000000000000000000000000000000000000815260040180806020018281038252601a8152602001807f4d73672073656e6465722069736e277420746865206f776e657200000000000081525060200191505060405180910390fd5b81600560006101000a81548173ffffffffffffffffffffffffffffffffffffffff021916908373ffffffffffffffffffffffffffffffffffffffff16021790555081600660006101000a81548173ffffffffffffffffffffffffffffffffffffffff021916908373ffffffffffffffffffffffffffffffffffffffff16021790555060019050919050565b6000600660009054906101000a900473ffffffffffffffffffffffffffffffffffffffff16905090565b6000806000806000610e676133f6565b73ffffffffffffffffffffffffffffffffffffffff163373ffffffffffffffffffffffffffffffffffffffff16141515610ea057600080fd5b60106000886000191660001916815260200190815260200160002054945060009350600e600086815260200190815260200160002060020160006001600d60008981526020019081526020016000205403815260200190815260200160002060000160009054906101000a900473ffffffffffffffffffffffffffffffffffffffff16925060001515600a600087815260200190815260200160002060009054906101000a900460ff1615151415610f6057610f5b85613754565b611397565b600091506000600f60008573ffffffffffffffffffffffffffffffffffffffff1673ffffffffffffffffffffffffffffffffffffffff168152602001908152602001600020600087815260200190815260200160002054111561102757600f60008473ffffffffffffffffffffffffffffffffffffffff1673ffffffffffffffffffffffffffffffffffffffff1681526020019081526020016000206000868152602001908152602001600020600081548092919060019003919050555060019350600191505b60011515821515141561127757600e600086815260200190815260200160002060010154600560009054906101000a900473ffffffffffffffffffffffffffffffffffffffff1673ffffffffffffffffffffffffffffffffffffffff1663f8b2cb4f856040518263ffffffff167c0100000000000000000000000000000000000000000000000000000000028152600401808273ffffffffffffffffffffffffffffffffffffffff1673ffffffffffffffffffffffffffffffffffffffff168152602001915050602060405180830381600087803b15801561110857600080fd5b505af115801561111c573d6000803e3d6000fd5b505050506040513d602081101561113257600080fd5b810190808051906020019092919050505010151561127657600560009054906101000a900473ffffffffffffffffffffffffffffffffffffffff1673ffffffffffffffffffffffffffffffffffffffff1663ac2ce9bc8430600e60008a8152602001908152602001600020600101546040518463ffffffff167c0100000000000000000000000000000000000000000000000000000000028152600401808473ffffffffffffffffffffffffffffffffffffffff1673ffffffffffffffffffffffffffffffffffffffff1681526020018373ffffffffffffffffffffffffffffffffffffffff1673ffffffffffffffffffffffffffffffffffffffff1681526020018281526020019350505050600060405180830381600087803b15801561125957600080fd5b505af115801561126d573d6000803e3d6000fd5b50505050600193505b5b831561138c57847fddc4a2725cf1f8877f0f114cec8c98a237f9bc152a04b5805d6241fdfd496b4b8442600180604051808573ffffffffffffffffffffffffffffffffffffffff1673ffffffffffffffffffffffffffffffffffffffff168152602001848152602001831515151581526020018215151515815260200194505050505060405180910390a261136560086000878152602001908152602001600020546040805190810160405280600381526020017f55524c0000000000000000000000000000000000000000000000000000000000815250602060405190810160405280600081525061399b565b90508460106000836000191660001916815260200190815260200160002081905550611396565b61139585613754565b5b5b6010600088600019166000191681526020019081526020016000206000905550505050505050565b60003373ffffffffffffffffffffffffffffffffffffffff16601160009054906101000a900473ffffffffffffffffffffffffffffffffffffffff1673ffffffffffffffffffffffffffffffffffffffff16141515611486576040517f08c379a000000000000000000000000000000000000000000000000000000000815260040180806020018281038252601a8152602001807f4d73672073656e6465722069736e277420746865206f776e657200000000000081525060200191505060405180910390fd5b6000861115156114fe576040517f08c379a000000000000000000000000000000000000000000000000000000000815260040180806020018281038252601b8152602001807f416374696f6e2070726963652063616e6e6f74206265207a65726f000000000081525060200191505060405180910390fd5b606060405190810160405280888152602001670de0b6b3a76400008802815260200160011515815250600e6000600c5481526020019081526020016000206000820151816000019080519060200190611558929190614864565b506020820151816001015560408201518160030160006101000a81548160ff0219169083151502179055509050508360086000600c5481526020019081526020016000208190555082600a6000600c54815260200190815260200160002060006101000a81548160ff02191690831515021790555081600b6000600c54815260200190815260200160002060006101000a81548160ff0219169083151502179055508460096000600c54815260200190815260200160002081905550600c547f259cce41447f493f2e316e75fbb88f4efed66d07c0dead3c1dfa7836a8cdd81388886040518080602001838152602001828103825284818151815260200191508051906020019080838360005b83811015611680578082015181840152602081019050611665565b50505050905090810190601f1680156116ad5780820380516001836020036101000a031916815260200191505b50935050505060405180910390a2600c60008154809291906001019190505550600190509695505050505050565b60003373ffffffffffffffffffffffffffffffffffffffff16601160009054906101000a900473ffffffffffffffffffffffffffffffffffffffff1673ffffffffffffffffffffffffffffffffffffffff161415156117a2576040517f08c379a000000000000000000000000000000000000000000000000000000000815260040180806020018281038252601a8152602001807f4d73672073656e6465722069736e277420746865206f776e657200000000000081525060200191505060405180910390fd5b81600a600085815260200190815260200160002060006101000a81548160ff0219169083151502179055506001905092915050565b505050565b6000600e600083815260200190815260200160002060030160009054906101000a900460ff169050919050565b60003373ffffffffffffffffffffffffffffffffffffffff16601160009054906101000a900473ffffffffffffffffffffffffffffffffffffffff1673ffffffffffffffffffffffffffffffffffffffff161415156118d0576040517f08c379a000000000000000000000000000000000000000000000000000000000815260040180806020018281038252601a8152602001807f4d73672073656e6465722069736e277420746865206f776e657200000000000081525060200191505060405180910390fd5b84600960008881526020019081526020016000208190555083600860008881526020019081526020016000208190555082600a600088815260200190815260200160002060006101000a81548160ff02191690831515021790555081600b600088815260200190815260200160002060006101000a81548160ff0219169083151502179055506001905095945050505050565b60606000806000806000600e6000888152602001908152602001600020600001600e600089815260200190815260200160002060010154600960008a815260200190815260200160002054600860008b815260200190815260200160002054600a60008c815260200190815260200160002060009054906101000a900460ff16600b60008d815260200190815260200160002060009054906101000a900460ff16858054600181600116156101000203166002900480601f016020809104026020016040519081016040528092919081815260200182805460018160011615610100020316600290048015611a995780601f10611a6e57610100808354040283529160200191611a99565b820191906000526020600020905b815481529060010190602001808311611a7c57829003601f168201915b5050505050955095509550955095509550955091939550919395565b6000600d6000838152602001908152602001600020549050919050565b6000806000611ae084613f3d565b9150600e600085815260200190815260200160002060020160006001600d600088815260200190815260200160002054038152602001908152602001600020905060011515600e600086815260200190815260200160002060030160009054906101000a900460ff161515148015611b7c575060011515600b600086815260200190815260200160002060009054906101000a900460ff161515145b8015611bd757508060000160009054906101000a900473ffffffffffffffffffffffffffffffffffffffff1673ffffffffffffffffffffffffffffffffffffffff163373ffffffffffffffffffffffffffffffffffffffff16145b8015611bf85750600115158160020160009054906101000a900460ff161515145b8015611c195750600115158160000160149054906101000a900460ff161515145b1515611c8d576040517f08c379a00000000000000000000000000000000000000000000000000000000081526004018080602001828103825260158152602001807f4661696c656420746f206175746f20726566756e64000000000000000000000081525060200191505060405180910390fd5b600560009054906101000a900473ffffffffffffffffffffffffffffffffffffffff1673ffffffffffffffffffffffffffffffffffffffff1663ac2ce9bc303385600e60008a815260200190815260200160002060010154036040518463ffffffff167c0100000000000000000000000000000000000000000000000000000000028152600401808473ffffffffffffffffffffffffffffffffffffffff1673ffffffffffffffffffffffffffffffffffffffff1681526020018373ffffffffffffffffffffffffffffffffffffffff1673ffffffffffffffffffffffffffffffffffffffff1681526020018281526020019350505050600060405180830381600087803b158015611d9e57600080fd5b505af1158015611db2573d6000803e3d6000fd5b5050505060008160000160146101000a81548160ff02191690831515021790555060018160000160156101000a81548160ff0219169083151502179055507f8392dd1994b5805073286c7466cefc588c77898d9b8a8cb59a02ed63811e09f484600e600087815260200190815260200160002060010154426000604051808581526020018481526020018381526020018215151515815260200194505050505060405180910390a15050919050565b6000600560009054906101000a900473ffffffffffffffffffffffffffffffffffffffff1673ffffffffffffffffffffffffffffffffffffffff1663ac2ce9bc3330600e6000878152602001908152602001600020600101546040518463ffffffff167c0100000000000000000000000000000000000000000000000000000000028152600401808473ffffffffffffffffffffffffffffffffffffffff1673ffffffffffffffffffffffffffffffffffffffff1681526020018373ffffffffffffffffffffffffffffffffffffffff1673ffffffffffffffffffffffffffffffffffffffff1681526020018281526020019350505050600060405180830381600087803b158015611f7257600080fd5b505af1158015611f86573d6000803e3d6000fd5b505050506009600083815260200190815260200160002054600f60003373ffffffffffffffffffffffffffffffffffffffff1673ffffffffffffffffffffffffffffffffffffffff16815260200190815260200160002060008481526020019081526020016000206000828254019250508190555060019050919050565b60003373ffffffffffffffffffffffffffffffffffffffff16601160009054906101000a900473ffffffffffffffffffffffffffffffffffffffff1673ffffffffffffffffffffffffffffffffffffffff161415156120cb576040517f08c379a000000000000000000000000000000000000000000000000000000000815260040180806020018281038252601a8152602001807f4d73672073656e6465722069736e277420746865206f776e657200000000000081525060200191505060405180910390fd5b60011515600e600085815260200190815260200160002060030160009054906101000a900460ff161515148015612126575060011515600b600085815260200190815260200160002060009054906101000a900460ff161515145b801561216d575060011515600e6000858152602001908152602001600020600201600084815260200190815260200160002060020160009054906101000a900460ff161515145b80156121b4575060001515600e6000858152602001908152602001600020600201600084815260200190815260200160002060000160159054906101000a900460ff161515145b151561224e576040517f08c379a00000000000000000000000000000000000000000000000000000000081526004018080602001828103825260288152602001807f526566756e64206d65726368616e74202d206661696c656420746f206973737581526020017f6520726566756e6400000000000000000000000000000000000000000000000081525060400191505060405180910390fd5b600560009054906101000a900473ffffffffffffffffffffffffffffffffffffffff1673ffffffffffffffffffffffffffffffffffffffff1663ac2ce9bc30600e6000878152602001908152602001600020600201600086815260200190815260200160002060000160009054906101000a900473ffffffffffffffffffffffffffffffffffffffff16600e6000888152602001908152602001600020600101546040518463ffffffff167c0100000000000000000000000000000000000000000000000000000000028152600401808473ffffffffffffffffffffffffffffffffffffffff1673ffffffffffffffffffffffffffffffffffffffff1681526020018373ffffffffffffffffffffffffffffffffffffffff1673ffffffffffffffffffffffffffffffffffffffff1681526020018281526020019350505050600060405180830381600087803b1580156123a757600080fd5b505af11580156123bb573d6000803e3d6000fd5b505050506000600e6000858152602001908152602001600020600201600084815260200190815260200160002060000160146101000a81548160ff0219169083151502179055506001600e6000858152602001908152602001600020600201600084815260200190815260200160002060000160156101000a81548160ff0219169083151502179055507f8392dd1994b5805073286c7466cefc588c77898d9b8a8cb59a02ed63811e09f483600e600086815260200190815260200160002060010154426000604051808581526020018481526020018381526020018215151515815260200194505050505060405180910390a192915050565b60008060011515600e600086815260200190815260200160002060030160009054906101000a900460ff16151514801561255e57506000600d600086815260200190815260200160002054148061255d575060001515600e600086815260200190815260200160002060020160006001600d60008981526020019081526020016000205403815260200190815260200160002060000160149054906101000a900460ff161515145b5b80156126d25750600e600085815260200190815260200160002060010154600560009054906101000a900473ffffffffffffffffffffffffffffffffffffffff1673ffffffffffffffffffffffffffffffffffffffff1663f8b2cb4f336040518263ffffffff167c0100000000000000000000000000000000000000000000000000000000028152600401808273ffffffffffffffffffffffffffffffffffffffff1673ffffffffffffffffffffffffffffffffffffffff168152602001915050602060405180830381600087803b15801561263957600080fd5b505af115801561264d573d6000803e3d6000fd5b505050506040513d602081101561266357600080fd5b81019080805190602001909291905050501015806126d157506000600f60003373ffffffffffffffffffffffffffffffffffffffff1673ffffffffffffffffffffffffffffffffffffffff168152602001908152602001600020600086815260200190815260200160002054115b5b801561273157506127176040805190810160405280600381526020017f55524c0000000000000000000000000000000000000000000000000000000000815250613fcf565b3073ffffffffffffffffffffffffffffffffffffffff1631115b15156127a5576040517f08c379a00000000000000000000000000000000000000000000000000000000081526004018080602001828103825260178152602001807f4661696c656420746f20656e61626c6520616374696f6e00000000000000000081525060200191505060405180910390fd5b6000600f60003373ffffffffffffffffffffffffffffffffffffffff1673ffffffffffffffffffffffffffffffffffffffff168152602001908152602001600020600086815260200190815260200160002054111561286457600f60003373ffffffffffffffffffffffffffffffffffffffff1673ffffffffffffffffffffffffffffffffffffffff16815260200190815260200160002060008581526020019081526020016000206000815480929190600190039190505550612a1d565b600560009054906101000a900473ffffffffffffffffffffffffffffffffffffffff1673ffffffffffffffffffffffffffffffffffffffff1663ac2ce9bc3330600e6000898152602001908152602001600020600101546040518463ffffffff167c0100000000000000000000000000000000000000000000000000000000028152600401808473ffffffffffffffffffffffffffffffffffffffff1673ffffffffffffffffffffffffffffffffffffffff1681526020018373ffffffffffffffffffffffffffffffffffffffff1673ffffffffffffffffffffffffffffffffffffffff1681526020018281526020019350505050600060405180830381600087803b15801561297357600080fd5b505af1158015612987573d6000803e3d6000fd5b50505050600160096000868152602001908152602001600020541115612a1c576001600960008681526020019081526020016000205403600f60003373ffffffffffffffffffffffffffffffffffffffff1673ffffffffffffffffffffffffffffffffffffffff1681526020019081526020016000206000868152602001908152602001600020600082825401925050819055505b5b60a0604051908101604052803373ffffffffffffffffffffffffffffffffffffffff16815260200160011515815260200160001515815260200142815260200160011515815250600e60008681526020019081526020016000206002016000600d600088815260200190815260200160002054815260200190815260200160002060008201518160000160006101000a81548173ffffffffffffffffffffffffffffffffffffffff021916908373ffffffffffffffffffffffffffffffffffffffff16021790555060208201518160000160146101000a81548160ff02191690831515021790555060408201518160000160156101000a81548160ff0219169083151502179055506060820151816001015560808201518160020160006101000a81548160ff021916908315150217905550905050837fddc4a2725cf1f8877f0f114cec8c98a237f9bc152a04b5805d6241fdfd496b4b334260006001604051808573ffffffffffffffffffffffffffffffffffffffff1673ffffffffffffffffffffffffffffffffffffffff168152602001848152602001831515151581526020018215151515815260200194505050505060405180910390a2600d600085815260200190815260200160002060008154809291906001019190505550612c5e60086000868152602001908152602001600020546040805190810160405280600381526020017f55524c0000000000000000000000000000000000000000000000000000000000815250602060405190810160405280600081525061399b565b90508360106000836000191660001916815260200190815260200160002081905550600191505092915050565b6000600f60008473ffffffffffffffffffffffffffffffffffffffff1673ffffffffffffffffffffffffffffffffffffffff168152602001908152602001600020600083815260200190815260200160002054905092915050565b6000600e600083815260200190815260200160002060020160006001600d60008681526020019081526020016000205403815260200190815260200160002060000160149054906101000a900460ff169050919050565b600060011515600e600084815260200190815260200160002060030160009054906101000a900460ff161515148015612dc7575060011515600e600084815260200190815260200160002060020160006001600d60008781526020019081526020016000205403815260200190815260200160002060000160149054906101000a900460ff161515145b8015612e5e57503373ffffffffffffffffffffffffffffffffffffffff16600e600084815260200190815260200160002060020160006001600d60008781526020019081526020016000205403815260200190815260200160002060000160009054906101000a900473ffffffffffffffffffffffffffffffffffffffff1673ffffffffffffffffffffffffffffffffffffffff16145b1515612e6957600080fd5b60a0604051908101604052803373ffffffffffffffffffffffffffffffffffffffff16815260200160001515815260200160001515815260200142815260200160011515815250600e60008481526020019081526020016000206002016000600d600086815260200190815260200160002054815260200190815260200160002060008201518160000160006101000a81548173ffffffffffffffffffffffffffffffffffffffff021916908373ffffffffffffffffffffffffffffffffffffffff16021790555060208201518160000160146101000a81548160ff02191690831515021790555060408201518160000160156101000a81548160ff0219169083151502179055506060820151816001015560808201518160020160006101000a81548160ff021916908315150217905550905050817fddc4a2725cf1f8877f0f114cec8c98a237f9bc152a04b5805d6241fdfd496b4b3342600080604051808573ffffffffffffffffffffffffffffffffffffffff1673ffffffffffffffffffffffffffffffffffffffff168152602001848152602001831515151581526020018215151515815260200194505050505060405180910390a2600d60008381526020019081526020016000206000815480929190600101919050555060019050919050565b60003373ffffffffffffffffffffffffffffffffffffffff16601160009054906101000a900473ffffffffffffffffffffffffffffffffffffffff1673ffffffffffffffffffffffffffffffffffffffff16141515613116576040517f08c379a000000000000000000000000000000000000000000000000000000000815260040180806020018281038252601a8152602001807f4d73672073656e6465722069736e277420746865206f776e657200000000000081525060200191505060405180910390fd5b8160086000858152602001908152602001600020819055506001905092915050565b60003373ffffffffffffffffffffffffffffffffffffffff16601160009054906101000a900473ffffffffffffffffffffffffffffffffffffffff1673ffffffffffffffffffffffffffffffffffffffff161415156131ff576040517f08c379a000000000000000000000000000000000000000000000000000000000815260040180806020018281038252601a8152602001807f4d73672073656e6465722069736e277420746865206f776e657200000000000081525060200191505060405180910390fd5b81600e6000858152602001908152602001600020600101819055506001905092915050565b60003373ffffffffffffffffffffffffffffffffffffffff16601160009054906101000a900473ffffffffffffffffffffffffffffffffffffffff1673ffffffffffffffffffffffffffffffffffffffff161415156132eb576040517f08c379a000000000000000000000000000000000000000000000000000000000815260040180806020018281038252601a8152602001807f4d73672073656e6465722069736e277420746865206f776e657200000000000081525060200191505060405180910390fd5b60011515600e600084815260200190815260200160002060030160009054906101000a900460ff16151514151561338a576040517f08c379a00000000000000000000000000000000000000000000000000000000081526004018080602001828103825260178152602001807f4661696c656420746f2064656c65746520616374696f6e00000000000000000081525060200191505060405180910390fd5b600e6000838152602001908152602001600020600080820160006133ae91906148e4565b60018201600090556003820160006101000a81549060ff02191690555050600d60008381526020019081526020016000206000905560019050919050565b6000600c54905090565b6000806000809054906101000a900473ffffffffffffffffffffffffffffffffffffffff1673ffffffffffffffffffffffffffffffffffffffff161480613466575060006134646000809054906101000a900473ffffffffffffffffffffffffffffffffffffffff1661439f565b145b156134775761347560006143aa565b505b6000809054906101000a900473ffffffffffffffffffffffffffffffffffffffff1673ffffffffffffffffffffffffffffffffffffffff166338cc48316040518163ffffffff167c0100000000000000000000000000000000000000000000000000000000028152600401602060405180830381600087803b1580156134fc57600080fd5b505af1158015613510573d6000803e3d6000fd5b505050506040513d602081101561352657600080fd5b810190808051906020019092919050505073ffffffffffffffffffffffffffffffffffffffff16600160009054906101000a900473ffffffffffffffffffffffffffffffffffffffff1673ffffffffffffffffffffffffffffffffffffffff1614151561368e576000809054906101000a900473ffffffffffffffffffffffffffffffffffffffff1673ffffffffffffffffffffffffffffffffffffffff166338cc48316040518163ffffffff167c0100000000000000000000000000000000000000000000000000000000028152600401602060405180830381600087803b15801561361257600080fd5b505af1158015613626573d6000803e3d6000fd5b505050506040513d602081101561363c57600080fd5b8101908080519060200190929190505050600160006101000a81548173ffffffffffffffffffffffffffffffffffffffff021916908373ffffffffffffffffffffffffffffffffffffffff1602179055505b600160009054906101000a900473ffffffffffffffffffffffffffffffffffffffff1673ffffffffffffffffffffffffffffffffffffffff1663c281d19e6040518163ffffffff167c0100000000000000000000000000000000000000000000000000000000028152600401602060405180830381600087803b15801561371457600080fd5b505af1158015613728573d6000803e3d6000fd5b505050506040513d602081101561373e57600080fd5b8101908080519060200190929190505050905090565b6000600e600083815260200190815260200160002060020160006001600d600086815260200190815260200160002054038152602001908152602001600020905060a0604051908101604052808260000160009054906101000a900473ffffffffffffffffffffffffffffffffffffffff1673ffffffffffffffffffffffffffffffffffffffff16815260200160001515815260200160001515815260200142815260200160011515815250600e60008481526020019081526020016000206002016000600d600086815260200190815260200160002054815260200190815260200160002060008201518160000160006101000a81548173ffffffffffffffffffffffffffffffffffffffff021916908373ffffffffffffffffffffffffffffffffffffffff16021790555060208201518160000160146101000a81548160ff02191690831515021790555060408201518160000160156101000a81548160ff0219169083151502179055506060820151816001015560808201518160020160006101000a81548160ff021916908315150217905550905050817fddc4a2725cf1f8877f0f114cec8c98a237f9bc152a04b5805d6241fdfd496b4b334260016000604051808573ffffffffffffffffffffffffffffffffffffffff1673ffffffffffffffffffffffffffffffffffffffff168152602001848152602001831515151581526020018215151515815260200194505050505060405180910390a2600d6000838152602001908152602001600020600081548092919060010191905055505050565b60008060008060009054906101000a900473ffffffffffffffffffffffffffffffffffffffff1673ffffffffffffffffffffffffffffffffffffffff161480613a0d57506000613a0b6000809054906101000a900473ffffffffffffffffffffffffffffffffffffffff1661439f565b145b15613a1e57613a1c60006143aa565b505b6000809054906101000a900473ffffffffffffffffffffffffffffffffffffffff1673ffffffffffffffffffffffffffffffffffffffff166338cc48316040518163ffffffff167c0100000000000000000000000000000000000000000000000000000000028152600401602060405180830381600087803b158015613aa357600080fd5b505af1158015613ab7573d6000803e3d6000fd5b505050506040513d6020811015613acd57600080fd5b810190808051906020019092919050505073ffffffffffffffffffffffffffffffffffffffff16600160009054906101000a900473ffffffffffffffffffffffffffffffffffffffff1673ffffffffffffffffffffffffffffffffffffffff16141515613c35576000809054906101000a900473ffffffffffffffffffffffffffffffffffffffff1673ffffffffffffffffffffffffffffffffffffffff166338cc48316040518163ffffffff167c0100000000000000000000000000000000000000000000000000000000028152600401602060405180830381600087803b158015613bb957600080fd5b505af1158015613bcd573d6000803e3d6000fd5b505050506040513d6020811015613be357600080fd5b8101908080519060200190929190505050600160006101000a81548173ffffffffffffffffffffffffffffffffffffffff021916908373ffffffffffffffffffffffffffffffffffffffff1602179055505b600160009054906101000a900473ffffffffffffffffffffffffffffffffffffffff1673ffffffffffffffffffffffffffffffffffffffff1663524f3889856040518263ffffffff167c01000000000000000000000000000000000000000000000000000000000281526004018080602001828103825283818151815260200191508051906020019080838360005b83811015613cdf578082015181840152602081019050613cc4565b50505050905090810190601f168015613d0c5780820380516001836020036101000a031916815260200191505b5092505050602060405180830381600087803b158015613d2b57600080fd5b505af1158015613d3f573d6000803e3d6000fd5b505050506040513d6020811015613d5557600080fd5b8101908080519060200190929190505050905062030d403a02670de0b6b3a764000001811115613d8b5760006001029150613f35565b600160009054906101000a900473ffffffffffffffffffffffffffffffffffffffff1673ffffffffffffffffffffffffffffffffffffffff1663adf59f99828787876040518563ffffffff167c0100000000000000000000000000000000000000000000000000000000028152600401808481526020018060200180602001838103835285818151815260200191508051906020019080838360005b83811015613e42578082015181840152602081019050613e27565b50505050905090810190601f168015613e6f5780820380516001836020036101000a031916815260200191505b50838103825284818151815260200191508051906020019080838360005b83811015613ea8578082015181840152602081019050613e8d565b50505050905090810190601f168015613ed55780820380516001836020036101000a031916815260200191505b50955050505050506020604051808303818588803b158015613ef657600080fd5b505af1158015613f0a573d6000803e3d6000fd5b50505050506040513d6020811015613f2157600080fd5b810190808051906020019092919050505091505b509392505050565b600080600080600e600086815260200190815260200160002060010154925060086000868152602001908152602001600020549150600e600086815260200190815260200160002060020160006001600d600089815260200190815260200160002054038152602001908152602001600020600101544203905081838202811515613fc457fe5b049350505050919050565b6000806000809054906101000a900473ffffffffffffffffffffffffffffffffffffffff1673ffffffffffffffffffffffffffffffffffffffff16148061403f5750600061403d6000809054906101000a900473ffffffffffffffffffffffffffffffffffffffff1661439f565b145b156140505761404e60006143aa565b505b6000809054906101000a900473ffffffffffffffffffffffffffffffffffffffff1673ffffffffffffffffffffffffffffffffffffffff166338cc48316040518163ffffffff167c0100000000000000000000000000000000000000000000000000000000028152600401602060405180830381600087803b1580156140d557600080fd5b505af11580156140e9573d6000803e3d6000fd5b505050506040513d60208110156140ff57600080fd5b810190808051906020019092919050505073ffffffffffffffffffffffffffffffffffffffff16600160009054906101000a900473ffffffffffffffffffffffffffffffffffffffff1673ffffffffffffffffffffffffffffffffffffffff16141515614267576000809054906101000a900473ffffffffffffffffffffffffffffffffffffffff1673ffffffffffffffffffffffffffffffffffffffff166338cc48316040518163ffffffff167c0100000000000000000000000000000000000000000000000000000000028152600401602060405180830381600087803b1580156141eb57600080fd5b505af11580156141ff573d6000803e3d6000fd5b505050506040513d602081101561421557600080fd5b8101908080519060200190929190505050600160006101000a81548173ffffffffffffffffffffffffffffffffffffffff021916908373ffffffffffffffffffffffffffffffffffffffff1602179055505b600160009054906101000a900473ffffffffffffffffffffffffffffffffffffffff1673ffffffffffffffffffffffffffffffffffffffff1663524f3889836040518263ffffffff167c01000000000000000000000000000000000000000000000000000000000281526004018080602001828103825283818151815260200191508051906020019080838360005b838110156143115780820151818401526020810190506142f6565b50505050905090810190601f16801561433e5780820380516001836020036101000a031916815260200191505b5092505050602060405180830381600087803b15801561435d57600080fd5b505af1158015614371573d6000803e3d6000fd5b505050506040513d602081101561438757600080fd5b81019080805190602001909291905050509050919050565b6000813b9050919050565b60006143b46143bb565b9050919050565b6000806143db731d3b2638a7cc9f2cb3d298a3da7a90b67e5506ed61439f565b111561447c57731d3b2638a7cc9f2cb3d298a3da7a90b67e5506ed6000806101000a81548173ffffffffffffffffffffffffffffffffffffffff021916908373ffffffffffffffffffffffffffffffffffffffff1602179055506144736040805190810160405280600b81526020017f6574685f6d61696e6e657400000000000000000000000000000000000000000081525061484a565b60019050614847565b600061449b73c03a2615d5efaf5f49f60b7bb6583eaec212fdf161439f565b111561453c5773c03a2615d5efaf5f49f60b7bb6583eaec212fdf16000806101000a81548173ffffffffffffffffffffffffffffffffffffffff021916908373ffffffffffffffffffffffffffffffffffffffff1602179055506145336040805190810160405280600c81526020017f6574685f726f707374656e33000000000000000000000000000000000000000081525061484a565b60019050614847565b600061455b73b7a07bcf2ba2f2703b24c0691b5278999c59ac7e61439f565b11156145fc5773b7a07bcf2ba2f2703b24c0691b5278999c59ac7e6000806101000a81548173ffffffffffffffffffffffffffffffffffffffff021916908373ffffffffffffffffffffffffffffffffffffffff1602179055506145f36040805190810160405280600981526020017f6574685f6b6f76616e000000000000000000000000000000000000000000000081525061484a565b60019050614847565b600061461b73146500cfd35b22e4a392fe0adc06de1a1368ed4861439f565b11156146bc5773146500cfd35b22e4a392fe0adc06de1a1368ed486000806101000a81548173ffffffffffffffffffffffffffffffffffffffff021916908373ffffffffffffffffffffffffffffffffffffffff1602179055506146b36040805190810160405280600b81526020017f6574685f72696e6b65627900000000000000000000000000000000000000000081525061484a565b60019050614847565b60006146db736f485c8bf6fc43ea212e93bbf8ce046c7f1cb47561439f565b111561473e57736f485c8bf6fc43ea212e93bbf8ce046c7f1cb4756000806101000a81548173ffffffffffffffffffffffffffffffffffffffff021916908373ffffffffffffffffffffffffffffffffffffffff16021790555060019050614847565b600061475d7320e12a1f859b3feae5fb2a0a32c18f5a65555bbf61439f565b11156147c0577320e12a1f859b3feae5fb2a0a32c18f5a65555bbf6000806101000a81548173ffffffffffffffffffffffffffffffffffffffff021916908373ffffffffffffffffffffffffffffffffffffffff16021790555060019050614847565b60006147df7351efaf4c8b3c9afbd5ab9f4bbc82784ab6ef8faa61439f565b1115614842577351efaf4c8b3c9afbd5ab9f4bbc82784ab6ef8faa6000806101000a81548173ffffffffffffffffffffffffffffffffffffffff021916908373ffffffffffffffffffffffffffffffffffffffff16021790555060019050614847565b600090505b90565b806002908051906020019061486092919061492c565b5050565b828054600181600116156101000203166002900490600052602060002090601f016020900481019282601f106148a557805160ff19168380011785556148d3565b828001600101855582156148d3579182015b828111156148d25782518255916020019190600101906148b7565b5b5090506148e091906149ac565b5090565b50805460018160011615610100020316600290046000825580601f1061490a5750614929565b601f01602090049060005260206000209081019061492891906149ac565b5b50565b828054600181600116156101000203166002900490600052602060002090601f016020900481019282601f1061496d57805160ff191683800117855561499b565b8280016001018555821561499b579182015b8281111561499a57825182559160200191906001019061497f565b5b5090506149a891906149ac565b5090565b6149ce91905b808211156149ca5760008160009055506001016149b2565b5090565b905600a165627a7a7230582078157278dee67705f22f926afb6759a8473ba16d41eed65d8542349e745c698a0029",
  "source": "pragma solidity ^0.4.24;\n\nimport \"./Rawbot.sol\";\nimport \"./lib/Oraclize.sol\";\nimport \"./interfaces/DeviceInterface.sol\";\n\ncontract Device is usingOraclize, DeviceInterface {\n\n    Rawbot private rawbot;\n    address private rawbot_address;\n    address private device_manager_address;\n\n    struct Action {\n        string name;\n        uint256 price;\n        mapping(uint256 => History) history;\n        bool available;\n    }\n\n    struct History {\n        address user;\n        bool enable;\n        bool refund;\n        uint256 time;\n        bool available;\n    }\n\n    /**\n        Action\n    */\n\n    mapping(uint256 => uint256) action_duration;\n    mapping(uint256 => uint256) action_occurrences;\n    mapping(uint256 => bool) action_recurring;\n    mapping(uint256 => bool) action_refundable;\n    uint256 private action_index = 0;\n    mapping(uint256 => uint256) action_history_length;\n    mapping(uint256 => Action) private actions;\n\n    mapping(address => mapping(uint256 => uint256)) user_action_occurrence;\n\n    mapping(bytes32 => uint256) private query_ids;\n    address private owner;\n\n    constructor(address __owner, address __rawbot_address) public payable {\n        OAR = OraclizeAddrResolverI(0x6f485C8BF6fc43eA212E93BBF8ce046C7f1cb475);\n        owner = __owner;\n        rawbot = Rawbot(__rawbot_address);\n        rawbot_address = __rawbot_address;\n    }\n\n    function() public payable {\n\n    }\n\n    modifier deviceOwner {\n        require(owner == msg.sender, \"Msg sender isn't the owner\");\n        _;\n    }\n\n    //\"Open\", 50\n    function addAction(\n        string name,\n        uint256 price,\n        uint256 occurrences,\n        uint256 duration,\n        bool recurring,\n        bool refundable\n    ) public deviceOwner returns (bool success) {\n        require(price > 0, \"Action price cannot be zero\");\n        actions[action_index] = Action(name, price * 1e18, true);\n        action_duration[action_index] = duration;\n        action_recurring[action_index] = recurring;\n        action_refundable[action_index] = refundable;\n        action_occurrences[action_index] = occurrences;\n        emit ActionAdd(action_index, name, price);\n        action_index++;\n        return true;\n    }\n\n    /**\n        Action setters\n    **/\n\n    function setActionPrice(uint256 id, uint256 price) public deviceOwner returns (bool success){\n        actions[id].price = price;\n        return true;\n    }\n\n    function setActionDuration(uint256 id, uint256 duration) public deviceOwner returns (bool success){\n        action_duration[id] = duration;\n        return true;\n    }\n\n    function setActionRecurring(uint256 id, bool recurring) public deviceOwner returns (bool success) {\n        action_recurring[id] = recurring;\n        return true;\n    }\n\n    function setActionRefundable(uint256 id, bool refundable) public deviceOwner returns (bool success){\n        action_refundable[id] = refundable;\n        return true;\n    }\n\n    function setActionProperties(\n        uint256 id,\n        uint256 occurrences,\n        uint256 duration,\n        bool recurring,\n        bool refundable\n    ) public deviceOwner returns (bool success) {\n        action_occurrences[id] = occurrences;\n        action_duration[id] = duration;\n        action_recurring[id] = recurring;\n        action_refundable[id] = refundable;\n        return true;\n    }\n\n    function buyAction(uint256 id) public returns (bool success){\n        rawbot.modifyBalance(msg.sender, address(this), actions[id].price);\n        user_action_occurrence[msg.sender][id] += action_occurrences[id];\n        return true;\n    }\n\n    function enableAction(uint256 id, string comment) public returns (bool success){\n        require(\n            actions[id].available == true\n            && (action_history_length[id] == 0 || actions[id].history[action_history_length[id] - 1].enable == false)\n            && (rawbot.getBalance(msg.sender) >= actions[id].price || user_action_occurrence[msg.sender][id] > 0)\n            && address(this).balance > oraclize_getPrice(\"URL\"),\n            \"Failed to enable action\"\n        );\n\n\n        if (user_action_occurrence[msg.sender][id] > 0) {\n            user_action_occurrence[msg.sender][id]--;\n        } else {\n            rawbot.modifyBalance(msg.sender, address(this), actions[id].price);\n\n            if (action_occurrences[id] > 1) {\n                user_action_occurrence[msg.sender][id] += action_occurrences[id] - 1;\n            }\n        }\n\n        actions[id].history[action_history_length[id]] = History(msg.sender, true, false, now, true);\n        emit ActionLogs(\n            id,\n            msg.sender,\n            now,\n            false,\n            true\n        );\n        action_history_length[id]++;\n        bytes32 query_id = oraclize_query(action_duration[id], \"URL\", \"\");\n        query_ids[query_id] = id;\n        return true;\n    }\n\n    function disableAction(uint256 id) public returns (bool success){\n        require(\n            actions[id].available == true\n            && actions[id].history[action_history_length[id] - 1].enable == true\n            && actions[id].history[action_history_length[id] - 1].user == msg.sender\n        );\n\n        actions[id].history[action_history_length[id]] = History(msg.sender, false, false, now, true);\n        emit ActionLogs(\n            id,\n            msg.sender,\n            now,\n            false,\n            false\n        );\n        action_history_length[id]++;\n        return true;\n    }\n\n    function deleteAction(uint256 id) public deviceOwner returns (bool) {\n        require(actions[id].available == true, \"Failed to delete action\");\n        delete actions[id];\n        delete action_history_length[id];\n        return true;\n    }\n\n    function withdraw(uint256 value, address to) public deviceOwner returns (bool success) {\n        rawbot.modifyBalance(address(this), to, value);\n        return true;\n    }\n\n    function calculateAmountToRefund(uint256 id) private view returns (uint256 amount) {\n        uint256 price = actions[id].price;\n        uint256 duration = action_duration[id];\n        uint256 duration_used = now - actions[id].history[action_history_length[id] - 1].time;\n        return (duration_used * price) / duration;\n    }\n\n    //0, 0\n    function refundMerchant(uint256 id, uint256 hid) public deviceOwner returns (bool success) {\n        require(\n            actions[id].available == true\n            && action_refundable[id] == true\n            && actions[id].history[hid].available == true\n            && actions[id].history[hid].refund == false,\n            \"Refund merchant - failed to issue refund\"\n        );\n        rawbot.modifyBalance(address(this), actions[id].history[hid].user, actions[id].price);\n        actions[id].history[hid].enable = false;\n        actions[id].history[hid].refund = true;\n        emit RefundEvent(\n            id,\n            actions[id].price,\n            now,\n            false\n        );\n    }\n\n    function refundCustomer(uint256 id) public returns (bool success){\n        uint256 amount_to_refund = calculateAmountToRefund(id);\n        History last_action = actions[id].history[action_history_length[id] - 1];\n        require(\n            actions[id].available == true\n            && action_refundable[id] == true\n            && msg.sender == last_action.user\n            && last_action.available == true\n            && last_action.enable == true,\n            // && (action_duration[id] + last_action.time) - now > 0,\n            \"Failed to auto refund\"\n        );\n        rawbot.modifyBalance(address(this), msg.sender, actions[id].price - amount_to_refund);\n        last_action.enable = false;\n        last_action.refund = true;\n        emit RefundEvent(\n            id,\n            actions[id].price,\n            now,\n            false\n        );\n    }\n\n    function __disableAction(uint256 id) private {\n        History last_action = actions[id].history[action_history_length[id] - 1];\n        actions[id].history[action_history_length[id]] = History(last_action.user, false, false, now, true);\n        emit ActionLogs(\n            id,\n            msg.sender,\n            now,\n            true,\n            false\n        );\n        action_history_length[id]++;\n    }\n\n    function __callback(bytes32 myid, string result) public {\n        if (msg.sender != oraclize_cbAddress()) revert();\n        uint256 id = query_ids[myid];\n        bool should_query = false;\n        address user = actions[id].history[action_history_length[id] - 1].user;\n        if (action_recurring[id] == false) {\n            __disableAction(id);\n        } else {\n            bool flag_one = false;\n            if (user_action_occurrence[user][id] > 0) {\n                user_action_occurrence[user][id]--;\n                should_query = true;\n                flag_one = true;\n            }\n\n            if (flag_one == true) {\n                if (rawbot.getBalance(user) >= actions[id].price) {\n                    rawbot.modifyBalance(user, address(this), actions[id].price);\n                    should_query = true;\n                }\n            }\n            if (should_query) {\n                emit ActionLogs(\n                    id,\n                    user,\n                    now,\n                    true,\n                    true\n                );\n                bytes32 query_id = oraclize_query(action_duration[id], \"URL\", \"\");\n                query_ids[query_id] = id;\n            } else {\n                __disableAction(id);\n            }\n        }\n\n\n        delete query_ids[myid];\n    }\n\n    function getRawbotAddress() public view returns (address _rawbot_address){\n        return rawbot_address;\n    }\n\n    function setRawbot(address __rawbot_address) public deviceOwner returns (bool success){\n        rawbot = Rawbot(__rawbot_address);\n        rawbot_address = __rawbot_address;\n        return true;\n    }\n\n    function getDeviceAction(uint256 id) public view returns (string name, uint256 price, uint256 occurrences, uint256 duration, bool recurring, bool refundable) {\n        return (actions[id].name, actions[id].price, action_occurrences[id], action_duration[id], action_recurring[id], action_refundable[id]);\n    }\n\n    function getTotalActions() public view returns (uint256 total_actions){\n        return action_index;\n    }\n\n    function getTotalActionsHistoryOf(uint256 action_id) public view returns (uint256 length){\n        return action_history_length[action_id];\n    }\n\n    function isEnabled(uint256 action_id) public view returns (bool enabled) {\n        return actions[action_id].history[action_history_length[action_id] - 1].enable;\n    }\n\n    function isAvailable(uint256 action_id) public view returns (bool available) {\n        return actions[action_id].available;\n    }\n\n    function getUserActionOccurrence(address user, uint256 id) public view returns (uint256 amount){\n        return user_action_occurrence[user][id];\n    }\n}\n\n",
  "sourcePath": "/Users/hassanjawhar/Desktop/Workspace/rawbot/smart-contract/contracts/Device.sol",
  "compiler": {
    "name": "solc",
    "version": "0.4.24+commit.e67f0147.Emscripten.clang"
  },
  "schemaVersion": "2.0.1",
  "updatedAt": "2019-01-23T17:35:12.759Z"
}