{
  "contractName": "IPFS",
  "abi": [
    {
      "constant": true,
      "inputs": [],
      "name": "owner",
      "outputs": [
        {
          "name": "",
          "type": "address"
        }
      ],
      "payable": false,
      "stateMutability": "view",
      "type": "function"
    },
    {
      "constant": false,
      "inputs": [
        {
          "name": "newOwner",
          "type": "address"
        }
      ],
      "name": "transferOwnership",
      "outputs": [],
      "payable": false,
      "stateMutability": "nonpayable",
      "type": "function"
    },
    {
      "inputs": [
        {
          "name": "__rawbot_address",
          "type": "address"
        },
        {
          "name": "__device_spawner_address",
          "type": "address"
        }
      ],
      "payable": true,
      "stateMutability": "payable",
      "type": "constructor"
    },
    {
      "anonymous": false,
      "inputs": [
        {
          "indexed": true,
          "name": "device_address",
          "type": "address"
        },
        {
          "indexed": true,
          "name": "ipfs_index",
          "type": "uint256"
        },
        {
          "indexed": false,
          "name": "name",
          "type": "bytes32"
        },
        {
          "indexed": false,
          "name": "price",
          "type": "uint256"
        }
      ],
      "name": "AddIPFSAction",
      "type": "event"
    },
    {
      "anonymous": false,
      "inputs": [
        {
          "indexed": true,
          "name": "ipfs_action_index",
          "type": "uint256"
        },
        {
          "indexed": false,
          "name": "ipfs_action_logs_index",
          "type": "uint256"
        },
        {
          "indexed": true,
          "name": "device",
          "type": "address"
        },
        {
          "indexed": true,
          "name": "user",
          "type": "address"
        },
        {
          "indexed": false,
          "name": "email",
          "type": "bytes32"
        },
        {
          "indexed": false,
          "name": "name",
          "type": "bytes32"
        },
        {
          "indexed": false,
          "name": "price",
          "type": "uint256"
        },
        {
          "indexed": false,
          "name": "pub_key",
          "type": "bytes32"
        },
        {
          "indexed": false,
          "name": "time",
          "type": "uint256"
        }
      ],
      "name": "ExecuteIPFSAction",
      "type": "event"
    },
    {
      "constant": false,
      "inputs": [
        {
          "name": "device_address",
          "type": "address"
        },
        {
          "name": "name",
          "type": "bytes32"
        },
        {
          "name": "price",
          "type": "uint256"
        }
      ],
      "name": "addIPFSAction",
      "outputs": [
        {
          "name": "success",
          "type": "bool"
        }
      ],
      "payable": false,
      "stateMutability": "nonpayable",
      "type": "function"
    },
    {
      "constant": false,
      "inputs": [
        {
          "name": "device_address",
          "type": "address"
        },
        {
          "name": "hash_index",
          "type": "uint256"
        },
        {
          "name": "email",
          "type": "bytes32"
        },
        {
          "name": "pub_key",
          "type": "bytes32"
        }
      ],
      "name": "retrieveIPFSData",
      "outputs": [
        {
          "name": "success",
          "type": "bool"
        }
      ],
      "payable": false,
      "stateMutability": "nonpayable",
      "type": "function"
    },
    {
      "constant": false,
      "inputs": [
        {
          "name": "device_address",
          "type": "address"
        },
        {
          "name": "action_log_index",
          "type": "uint256"
        },
        {
          "name": "hash_string",
          "type": "string"
        }
      ],
      "name": "addIPFSResult",
      "outputs": [
        {
          "name": "success",
          "type": "bool"
        }
      ],
      "payable": false,
      "stateMutability": "nonpayable",
      "type": "function"
    },
    {
      "constant": true,
      "inputs": [
        {
          "name": "device_address",
          "type": "address"
        },
        {
          "name": "action_log_index",
          "type": "uint256"
        }
      ],
      "name": "getIPFSResult",
      "outputs": [
        {
          "name": "hash_string",
          "type": "string"
        }
      ],
      "payable": false,
      "stateMutability": "view",
      "type": "function"
    },
    {
      "constant": true,
      "inputs": [
        {
          "name": "device_address",
          "type": "address"
        },
        {
          "name": "ipfs_action_id",
          "type": "uint256"
        }
      ],
      "name": "getIPFSAction",
      "outputs": [
        {
          "name": "action_name",
          "type": "bytes32"
        },
        {
          "name": "price",
          "type": "uint256"
        }
      ],
      "payable": false,
      "stateMutability": "view",
      "type": "function"
    },
    {
      "constant": true,
      "inputs": [
        {
          "name": "device_address",
          "type": "address"
        }
      ],
      "name": "getTotalHashes",
      "outputs": [
        {
          "name": "total_hashes",
          "type": "uint256"
        }
      ],
      "payable": false,
      "stateMutability": "view",
      "type": "function"
    },
    {
      "constant": false,
      "inputs": [
        {
          "name": "__rawbot_address",
          "type": "address"
        }
      ],
      "name": "setRawbot",
      "outputs": [
        {
          "name": "success",
          "type": "bool"
        }
      ],
      "payable": false,
      "stateMutability": "nonpayable",
      "type": "function"
    },
    {
      "constant": false,
      "inputs": [
        {
          "name": "__device_spawner_address",
          "type": "address"
        }
      ],
      "name": "setDeviceSpawner",
      "outputs": [
        {
          "name": "success",
          "type": "bool"
        }
      ],
      "payable": false,
      "stateMutability": "nonpayable",
      "type": "function"
    },
    {
      "constant": true,
      "inputs": [],
      "name": "getRawbotAddress",
      "outputs": [
        {
          "name": "__rawbot_address",
          "type": "address"
        }
      ],
      "payable": false,
      "stateMutability": "view",
      "type": "function"
    },
    {
      "constant": true,
      "inputs": [],
      "name": "getDeviceSpawnerAddress",
      "outputs": [
        {
          "name": "__device_spawner_address",
          "type": "address"
        }
      ],
      "payable": false,
      "stateMutability": "view",
      "type": "function"
    }
  ],
  "bytecode": "0x60806040526040516040806115048339810180604052810190808051906020019092919080519060200190929190505050336000806101000a81548173ffffffffffffffffffffffffffffffffffffffff021916908373ffffffffffffffffffffffffffffffffffffffff16021790555081600360006101000a81548173ffffffffffffffffffffffffffffffffffffffff021916908373ffffffffffffffffffffffffffffffffffffffff16021790555080600460006101000a81548173ffffffffffffffffffffffffffffffffffffffff021916908373ffffffffffffffffffffffffffffffffffffffff16021790555081600160006101000a81548173ffffffffffffffffffffffffffffffffffffffff021916908373ffffffffffffffffffffffffffffffffffffffff16021790555080600260006101000a81548173ffffffffffffffffffffffffffffffffffffffff021916908373ffffffffffffffffffffffffffffffffffffffff160217905550505061137f806101856000396000f3006080604052600436106100ba576000357c0100000000000000000000000000000000000000000000000000000000900463ffffffff1680631a0c8b08146100bf5780632483142e1461011a57806357c3e5a7146101715780635818a0351461021c578063701000311461027357806374e2f7c2146102ce5780638da5cb5b14610341578063a6b871b514610398578063b9188e6114610408578063cc95146b14610489578063d2fc8bd6146104e0578063f2fde38b146105a6575b600080fd5b3480156100cb57600080fd5b50610100600480360381019080803573ffffffffffffffffffffffffffffffffffffffff1690602001909291905050506105e9565b604051808215151515815260200191505060405180910390f35b34801561012657600080fd5b5061012f6106d1565b604051808273ffffffffffffffffffffffffffffffffffffffff1673ffffffffffffffffffffffffffffffffffffffff16815260200191505060405180910390f35b34801561017d57600080fd5b50610202600480360381019080803573ffffffffffffffffffffffffffffffffffffffff16906020019092919080359060200190929190803590602001908201803590602001908080601f01602080910402602001604051908101604052809392919081815260200183838082843782019150505050505091929192905050506106fb565b604051808215151515815260200191505060405180910390f35b34801561022857600080fd5b50610231610906565b604051808273ffffffffffffffffffffffffffffffffffffffff1673ffffffffffffffffffffffffffffffffffffffff16815260200191505060405180910390f35b34801561027f57600080fd5b506102b4600480360381019080803573ffffffffffffffffffffffffffffffffffffffff169060200190929190505050610930565b604051808215151515815260200191505060405180910390f35b3480156102da57600080fd5b50610327600480360381019080803573ffffffffffffffffffffffffffffffffffffffff169060200190929190803560001916906020019092919080359060200190929190505050610a18565b604051808215151515815260200191505060405180910390f35b34801561034d57600080fd5b50610356610c1a565b604051808273ffffffffffffffffffffffffffffffffffffffff1673ffffffffffffffffffffffffffffffffffffffff16815260200191505060405180910390f35b3480156103a457600080fd5b506103e3600480360381019080803573ffffffffffffffffffffffffffffffffffffffff16906020019092919080359060200190929190505050610c3f565b6040518083600019166000191681526020018281526020019250505060405180910390f35b34801561041457600080fd5b5061046f600480360381019080803573ffffffffffffffffffffffffffffffffffffffff1690602001909291908035906020019092919080356000191690602001909291908035600019169060200190929190505050610cac565b604051808215151515815260200191505060405180910390f35b34801561049557600080fd5b506104ca600480360381019080803573ffffffffffffffffffffffffffffffffffffffff1690602001909291905050506110d4565b6040518082815260200191505060405180910390f35b3480156104ec57600080fd5b5061052b600480360381019080803573ffffffffffffffffffffffffffffffffffffffff1690602001909291908035906020019092919050505061111d565b6040518080602001828103825283818151815260200191508051906020019080838360005b8381101561056b578082015181840152602081019050610550565b50505050905090810190601f1680156105985780820380516001836020036101000a031916815260200191505b509250505060405180910390f35b3480156105b257600080fd5b506105e7600480360381019080803573ffffffffffffffffffffffffffffffffffffffff169060200190929190505050611210565b005b60008060009054906101000a900473ffffffffffffffffffffffffffffffffffffffff1673ffffffffffffffffffffffffffffffffffffffff163373ffffffffffffffffffffffffffffffffffffffff1614151561064657600080fd5b81600360006101000a81548173ffffffffffffffffffffffffffffffffffffffff021916908373ffffffffffffffffffffffffffffffffffffffff16021790555081600160006101000a81548173ffffffffffffffffffffffffffffffffffffffff021916908373ffffffffffffffffffffffffffffffffffffffff16021790555060019050919050565b6000600360009054906101000a900473ffffffffffffffffffffffffffffffffffffffff16905090565b600060011515600260009054906101000a900473ffffffffffffffffffffffffffffffffffffffff1673ffffffffffffffffffffffffffffffffffffffff166395a078e8336040518263ffffffff167c0100000000000000000000000000000000000000000000000000000000028152600401808273ffffffffffffffffffffffffffffffffffffffff1673ffffffffffffffffffffffffffffffffffffffff168152602001915050602060405180830381600087803b1580156107be57600080fd5b505af11580156107d2573d6000803e3d6000fd5b505050506040513d60208110156107e857600080fd5b81019080805190602001909291905050501515141515610896576040517f08c379a00000000000000000000000000000000000000000000000000000000081526004018080602001828103825260248152602001807f44657669636520636f6e747261637420646f65736e277420686176652061636381526020017f6573732e0000000000000000000000000000000000000000000000000000000081525060400191505060405180910390fd5b81600760008673ffffffffffffffffffffffffffffffffffffffff1673ffffffffffffffffffffffffffffffffffffffff168152602001908152602001600020600085815260200190815260200160002090805190602001906108fa9291906112ae565b50600190509392505050565b6000600460009054906101000a900473ffffffffffffffffffffffffffffffffffffffff16905090565b60008060009054906101000a900473ffffffffffffffffffffffffffffffffffffffff1673ffffffffffffffffffffffffffffffffffffffff163373ffffffffffffffffffffffffffffffffffffffff1614151561098d57600080fd5b81600460006101000a81548173ffffffffffffffffffffffffffffffffffffffff021916908373ffffffffffffffffffffffffffffffffffffffff16021790555081600260006101000a81548173ffffffffffffffffffffffffffffffffffffffff021916908373ffffffffffffffffffffffffffffffffffffffff16021790555060019050919050565b600080600560008673ffffffffffffffffffffffffffffffffffffffff1673ffffffffffffffffffffffffffffffffffffffff16815260200190815260200160002054905060606040519081016040528085600019168152602001670de0b6b3a76400008502815260200160011515815250600860008773ffffffffffffffffffffffffffffffffffffffff1673ffffffffffffffffffffffffffffffffffffffff1681526020019081526020016000206000838152602001908152602001600020600082015181600001906000191690556020820151816001015560408201518160020160006101000a81548160ff021916908315150217905550905050600560008673ffffffffffffffffffffffffffffffffffffffff1673ffffffffffffffffffffffffffffffffffffffff168152602001908152602001600020548573ffffffffffffffffffffffffffffffffffffffff167fde15d9adb6b2fc63da0a52be00b82d008b5f8db27ddd5be9598253d68d11263b86670de0b6b3a764000087026040518083600019166000191681526020018281526020019250505060405180910390a3600560008673ffffffffffffffffffffffffffffffffffffffff1673ffffffffffffffffffffffffffffffffffffffff1681526020019081526020016000206000815480929190600101919050555060019150509392505050565b6000809054906101000a900473ffffffffffffffffffffffffffffffffffffffff1681565b6000806000600860008673ffffffffffffffffffffffffffffffffffffffff1673ffffffffffffffffffffffffffffffffffffffff168152602001908152602001600020600085815260200190815260200160002090508060000154816001015492509250509250929050565b600060011515600860008773ffffffffffffffffffffffffffffffffffffffff1673ffffffffffffffffffffffffffffffffffffffff168152602001908152602001600020600086815260200190815260200160002060020160009054906101000a900460ff161515141515610d8a576040517f08c379a000000000000000000000000000000000000000000000000000000000815260040180806020018281038252601c8152602001807f4661696c656420746f207265747269657665204950465320646174610000000081525060200191505060405180910390fd5b600160009054906101000a900473ffffffffffffffffffffffffffffffffffffffff1673ffffffffffffffffffffffffffffffffffffffff1663ac2ce9bc3387600860008a73ffffffffffffffffffffffffffffffffffffffff1673ffffffffffffffffffffffffffffffffffffffff1681526020019081526020016000206000898152602001908152602001600020600101546040518463ffffffff167c0100000000000000000000000000000000000000000000000000000000028152600401808473ffffffffffffffffffffffffffffffffffffffff1673ffffffffffffffffffffffffffffffffffffffff1681526020018373ffffffffffffffffffffffffffffffffffffffff1673ffffffffffffffffffffffffffffffffffffffff1681526020018281526020019350505050600060405180830381600087803b158015610ed657600080fd5b505af1158015610eea573d6000803e3d6000fd5b505050503373ffffffffffffffffffffffffffffffffffffffff168573ffffffffffffffffffffffffffffffffffffffff16857f17cef081e3e155ef03d3506872151a0fdccc114a8693d4401b563aaf92f369d1600660008a73ffffffffffffffffffffffffffffffffffffffff1673ffffffffffffffffffffffffffffffffffffffff1681526020019081526020016000205487600860008c73ffffffffffffffffffffffffffffffffffffffff1673ffffffffffffffffffffffffffffffffffffffff16815260200190815260200160002060008b815260200190815260200160002060000154600860008d73ffffffffffffffffffffffffffffffffffffffff1673ffffffffffffffffffffffffffffffffffffffff16815260200190815260200160002060008c815260200190815260200160002060010154894260405180878152602001866000191660001916815260200185600019166000191681526020018481526020018360001916600019168152602001828152602001965050505050505060405180910390a4600660008673ffffffffffffffffffffffffffffffffffffffff1673ffffffffffffffffffffffffffffffffffffffff1681526020019081526020016000206000815480929190600101919050555060019050949350505050565b6000600560008373ffffffffffffffffffffffffffffffffffffffff1673ffffffffffffffffffffffffffffffffffffffff168152602001908152602001600020549050919050565b6060600760008473ffffffffffffffffffffffffffffffffffffffff1673ffffffffffffffffffffffffffffffffffffffff16815260200190815260200160002060008381526020019081526020016000208054600181600116156101000203166002900480601f0160208091040260200160405190810160405280929190818152602001828054600181600116156101000203166002900480156112035780601f106111d857610100808354040283529160200191611203565b820191906000526020600020905b8154815290600101906020018083116111e657829003601f168201915b5050505050905092915050565b6000809054906101000a900473ffffffffffffffffffffffffffffffffffffffff1673ffffffffffffffffffffffffffffffffffffffff163373ffffffffffffffffffffffffffffffffffffffff1614151561126b57600080fd5b806000806101000a81548173ffffffffffffffffffffffffffffffffffffffff021916908373ffffffffffffffffffffffffffffffffffffffff16021790555050565b828054600181600116156101000203166002900490600052602060002090601f016020900481019282601f106112ef57805160ff191683800117855561131d565b8280016001018555821561131d579182015b8281111561131c578251825591602001919060010190611301565b5b50905061132a919061132e565b5090565b61135091905b8082111561134c576000816000905550600101611334565b5090565b905600a165627a7a723058208d8f25d8802f29faa9f5ff8c953ecbe8ad7d44908a025119b6632ccb10e7292a0029",
  "source": "pragma solidity ^0.4.24;\n\nimport \"./DeviceSpawner.sol\";\nimport \"./Rawbot.sol\";\nimport \"./lib/Owned.sol\";\n\ncontract IPFS is Owned {\n\n    event AddIPFSAction (\n        address indexed device_address,\n        uint256 indexed ipfs_index,\n        bytes32 name,\n        uint256 price\n    );\n\n    event ExecuteIPFSAction (\n        uint256 indexed ipfs_action_index,\n        uint256 ipfs_action_logs_index,\n        address indexed device,\n        address indexed user,\n        bytes32 email,\n        bytes32 name,\n        uint256 price,\n        bytes32 pub_key,\n        uint256 time\n    );\n\n    Rawbot private rawbot;\n    DeviceSpawner private device_spawner;\n    address private rawbot_address;\n    address private device_spawner_address;\n\n    mapping(address => uint256) ipfs_action_index;\n    mapping(address => uint256) ipfs_action_index_history;\n\n    mapping(address => mapping(uint256 => string)) ipfs_results;\n    mapping(address => mapping(uint256 => IPFSAction)) ipfs_actions;\n\n    struct IPFSAction {\n        bytes32 name;\n        uint256 price;\n        bool available;\n    }\n\n    constructor(address __rawbot_address, address __device_spawner_address) public payable {\n        rawbot_address = __rawbot_address;\n        device_spawner_address = __device_spawner_address;\n        rawbot = Rawbot(__rawbot_address);\n        device_spawner = DeviceSpawner(__device_spawner_address);\n    }\n\n    modifier deviceOnly () {\n        require(device_spawner.hasAccess(msg.sender) == true, \"Device contract doesn't have access.\");\n        _;\n    }\n\n    modifier deviceOwnerOnly (address device_address) {\n        require(device_spawner.getDeviceOwner(device_address) == msg.sender, \"Device owner doesn't match.\");\n        _;\n    }\n\n    function addIPFSAction(address device_address, bytes32 name, uint256 price) public returns (bool success) {\n        uint256 __ipfs_index = ipfs_action_index[device_address];\n        ipfs_actions[device_address][__ipfs_index] = IPFSAction(name, price * 1e18, true);\n        emit AddIPFSAction(\n            device_address,\n            ipfs_action_index[device_address],\n            name,\n            price * 1e18\n        );\n        ipfs_action_index[device_address]++;\n        return true;\n    }\n\n    function retrieveIPFSData(address device_address, uint256 hash_index, bytes32 email, bytes32 pub_key) public returns (bool success) {\n        require(ipfs_actions[device_address][hash_index].available == true, \"Failed to retrieve IPFS data\");\n        rawbot.modifyBalance(msg.sender, device_address, ipfs_actions[device_address][hash_index].price);\n        emit ExecuteIPFSAction(\n            hash_index,\n            ipfs_action_index_history[device_address],\n            device_address,\n            msg.sender,\n            email,\n            ipfs_actions[device_address][hash_index].name,\n            ipfs_actions[device_address][hash_index].price,\n            pub_key,\n            now\n        );\n        ipfs_action_index_history[device_address]++;\n        return true;\n    }\n\n    function addIPFSResult(address device_address, uint256 action_log_index, string hash_string) public deviceOnly returns (bool success){\n        ipfs_results[device_address][action_log_index] = hash_string;\n        return true;\n    }\n\n    function getIPFSResult(address device_address, uint256 action_log_index) public view returns (string hash_string){\n        return ipfs_results[device_address][action_log_index];\n    }\n\n    function getIPFSAction(address device_address, uint256 ipfs_action_id) public view returns (bytes32 action_name, uint256 price){\n        IPFSAction action = ipfs_actions[device_address][ipfs_action_id];\n        return (action.name, action.price);\n    }\n\n    function getTotalHashes(address device_address) public view returns (uint256 total_hashes){\n        return ipfs_action_index[device_address];\n    }\n\n    function setRawbot(address __rawbot_address) public onlyOwner returns (bool success) {\n        rawbot_address = __rawbot_address;\n        rawbot = Rawbot(__rawbot_address);\n        return true;\n    }\n\n    function setDeviceSpawner(address __device_spawner_address) public onlyOwner returns (bool success) {\n        device_spawner_address = __device_spawner_address;\n        device_spawner = DeviceSpawner(__device_spawner_address);\n        return true;\n    }\n\n    function getRawbotAddress() public view returns (address __rawbot_address) {\n        return rawbot_address;\n    }\n\n    function getDeviceSpawnerAddress() public view returns (address __device_spawner_address) {\n        return device_spawner_address;\n    }\n}",
  "sourcePath": "/Users/hassanjawhar/Desktop/Workspace/rawbot/smart-contract/contracts/IPFS.sol",
  "compiler": {
    "name": "solc",
    "version": "0.4.24+commit.e67f0147.Emscripten.clang"
  },
  "schemaVersion": "2.0.1",
  "updatedAt": "2019-01-23T17:49:09.982Z"
}