{
  "contractName": "Rawbot",
  "abi": [
    {
      "constant": true,
      "inputs": [],
      "name": "name",
      "outputs": [
        {
          "name": "",
          "type": "string"
        }
      ],
      "payable": false,
      "stateMutability": "view",
      "type": "function"
    },
    {
      "constant": false,
      "inputs": [
        {
          "name": "_spender",
          "type": "address"
        },
        {
          "name": "_value",
          "type": "uint256"
        }
      ],
      "name": "approve",
      "outputs": [
        {
          "name": "success",
          "type": "bool"
        }
      ],
      "payable": false,
      "stateMutability": "nonpayable",
      "type": "function"
    },
    {
      "constant": true,
      "inputs": [],
      "name": "totalSupply",
      "outputs": [
        {
          "name": "",
          "type": "uint256"
        }
      ],
      "payable": false,
      "stateMutability": "view",
      "type": "function"
    },
    {
      "constant": true,
      "inputs": [
        {
          "name": "",
          "type": "address"
        }
      ],
      "name": "balances",
      "outputs": [
        {
          "name": "",
          "type": "uint256"
        }
      ],
      "payable": false,
      "stateMutability": "view",
      "type": "function"
    },
    {
      "constant": true,
      "inputs": [],
      "name": "decimals",
      "outputs": [
        {
          "name": "",
          "type": "uint8"
        }
      ],
      "payable": false,
      "stateMutability": "view",
      "type": "function"
    },
    {
      "constant": true,
      "inputs": [
        {
          "name": "",
          "type": "address"
        },
        {
          "name": "",
          "type": "address"
        }
      ],
      "name": "allowed",
      "outputs": [
        {
          "name": "",
          "type": "uint256"
        }
      ],
      "payable": false,
      "stateMutability": "view",
      "type": "function"
    },
    {
      "constant": true,
      "inputs": [
        {
          "name": "_owner",
          "type": "address"
        }
      ],
      "name": "balanceOf",
      "outputs": [
        {
          "name": "balance",
          "type": "uint256"
        }
      ],
      "payable": false,
      "stateMutability": "view",
      "type": "function"
    },
    {
      "constant": true,
      "inputs": [],
      "name": "owner",
      "outputs": [
        {
          "name": "",
          "type": "address"
        }
      ],
      "payable": false,
      "stateMutability": "view",
      "type": "function"
    },
    {
      "constant": true,
      "inputs": [],
      "name": "symbol",
      "outputs": [
        {
          "name": "",
          "type": "string"
        }
      ],
      "payable": false,
      "stateMutability": "view",
      "type": "function"
    },
    {
      "constant": true,
      "inputs": [],
      "name": "initSupply",
      "outputs": [
        {
          "name": "",
          "type": "uint256"
        }
      ],
      "payable": false,
      "stateMutability": "view",
      "type": "function"
    },
    {
      "constant": false,
      "inputs": [
        {
          "name": "_to",
          "type": "address"
        },
        {
          "name": "_value",
          "type": "uint256"
        }
      ],
      "name": "transfer",
      "outputs": [],
      "payable": false,
      "stateMutability": "nonpayable",
      "type": "function"
    },
    {
      "constant": false,
      "inputs": [
        {
          "name": "_to",
          "type": "address"
        },
        {
          "name": "_value",
          "type": "uint256"
        },
        {
          "name": "_data",
          "type": "bytes"
        }
      ],
      "name": "transfer",
      "outputs": [],
      "payable": false,
      "stateMutability": "nonpayable",
      "type": "function"
    },
    {
      "constant": true,
      "inputs": [
        {
          "name": "_owner",
          "type": "address"
        },
        {
          "name": "_spender",
          "type": "address"
        }
      ],
      "name": "allowance",
      "outputs": [
        {
          "name": "remaining",
          "type": "uint256"
        }
      ],
      "payable": false,
      "stateMutability": "view",
      "type": "function"
    },
    {
      "constant": false,
      "inputs": [
        {
          "name": "newOwner",
          "type": "address"
        }
      ],
      "name": "transferOwnership",
      "outputs": [],
      "payable": false,
      "stateMutability": "nonpayable",
      "type": "function"
    },
    {
      "inputs": [],
      "payable": true,
      "stateMutability": "payable",
      "type": "constructor"
    },
    {
      "payable": true,
      "stateMutability": "payable",
      "type": "fallback"
    },
    {
      "anonymous": false,
      "inputs": [
        {
          "indexed": false,
          "name": "user",
          "type": "address"
        },
        {
          "indexed": false,
          "name": "amount",
          "type": "uint256"
        }
      ],
      "name": "Burn",
      "type": "event"
    },
    {
      "anonymous": false,
      "inputs": [
        {
          "indexed": false,
          "name": "_description",
          "type": "string"
        },
        {
          "indexed": false,
          "name": "_time",
          "type": "uint256"
        }
      ],
      "name": "OraclizeLog",
      "type": "event"
    },
    {
      "anonymous": false,
      "inputs": [
        {
          "indexed": true,
          "name": "_user",
          "type": "address"
        },
        {
          "indexed": false,
          "name": "_eth_price",
          "type": "uint256"
        },
        {
          "indexed": false,
          "name": "_input",
          "type": "uint256"
        },
        {
          "indexed": false,
          "name": "_output",
          "type": "uint256"
        },
        {
          "indexed": false,
          "name": "_time",
          "type": "uint256"
        },
        {
          "indexed": false,
          "name": "_block_number",
          "type": "uint256"
        }
      ],
      "name": "TransactionEvent",
      "type": "event"
    },
    {
      "anonymous": false,
      "inputs": [
        {
          "indexed": true,
          "name": "from",
          "type": "address"
        },
        {
          "indexed": true,
          "name": "to",
          "type": "address"
        },
        {
          "indexed": false,
          "name": "value",
          "type": "uint256"
        },
        {
          "indexed": false,
          "name": "data",
          "type": "bytes"
        }
      ],
      "name": "Transfer",
      "type": "event"
    },
    {
      "anonymous": false,
      "inputs": [
        {
          "indexed": true,
          "name": "_owner",
          "type": "address"
        },
        {
          "indexed": true,
          "name": "_spender",
          "type": "address"
        },
        {
          "indexed": false,
          "name": "_value",
          "type": "uint256"
        }
      ],
      "name": "Approval",
      "type": "event"
    },
    {
      "constant": false,
      "inputs": [
        {
          "name": "_value",
          "type": "uint256"
        }
      ],
      "name": "burn",
      "outputs": [
        {
          "name": "success",
          "type": "bool"
        }
      ],
      "payable": false,
      "stateMutability": "nonpayable",
      "type": "function"
    },
    {
      "constant": false,
      "inputs": [
        {
          "name": "_address",
          "type": "address"
        },
        {
          "name": "value",
          "type": "uint256"
        }
      ],
      "name": "sendRawbot",
      "outputs": [
        {
          "name": "",
          "type": "bool"
        }
      ],
      "payable": true,
      "stateMutability": "payable",
      "type": "function"
    },
    {
      "constant": false,
      "inputs": [
        {
          "name": "from",
          "type": "address"
        },
        {
          "name": "to",
          "type": "address"
        },
        {
          "name": "amount",
          "type": "uint256"
        }
      ],
      "name": "modifyBalance",
      "outputs": [],
      "payable": false,
      "stateMutability": "nonpayable",
      "type": "function"
    },
    {
      "constant": false,
      "inputs": [
        {
          "name": "endpoint",
          "type": "string"
        }
      ],
      "name": "changeUrl",
      "outputs": [],
      "payable": false,
      "stateMutability": "nonpayable",
      "type": "function"
    },
    {
      "constant": false,
      "inputs": [
        {
          "name": "timing",
          "type": "uint256"
        }
      ],
      "name": "fetchEthereumPrice",
      "outputs": [
        {
          "name": "",
          "type": "bool"
        }
      ],
      "payable": true,
      "stateMutability": "payable",
      "type": "function"
    },
    {
      "constant": false,
      "inputs": [],
      "name": "increaseSupply",
      "outputs": [],
      "payable": false,
      "stateMutability": "nonpayable",
      "type": "function"
    },
    {
      "constant": false,
      "inputs": [
        {
          "name": "_address",
          "type": "address"
        }
      ],
      "name": "setDeviceSpawnerAddress",
      "outputs": [
        {
          "name": "success",
          "type": "bool"
        }
      ],
      "payable": false,
      "stateMutability": "nonpayable",
      "type": "function"
    },
    {
      "constant": true,
      "inputs": [],
      "name": "getDeviceSpawnerAddress",
      "outputs": [
        {
          "name": "__device_spawner_address",
          "type": "address"
        }
      ],
      "payable": false,
      "stateMutability": "view",
      "type": "function"
    },
    {
      "constant": false,
      "inputs": [
        {
          "name": "__ipfs_address",
          "type": "address"
        }
      ],
      "name": "setIPFSAddress",
      "outputs": [
        {
          "name": "success",
          "type": "bool"
        }
      ],
      "payable": false,
      "stateMutability": "nonpayable",
      "type": "function"
    },
    {
      "constant": true,
      "inputs": [],
      "name": "getIPFSAddress",
      "outputs": [
        {
          "name": "__ipfs_address",
          "type": "address"
        }
      ],
      "payable": false,
      "stateMutability": "view",
      "type": "function"
    },
    {
      "constant": true,
      "inputs": [],
      "name": "getAddresses",
      "outputs": [
        {
          "name": "__addresses",
          "type": "address[]"
        }
      ],
      "payable": false,
      "stateMutability": "view",
      "type": "function"
    },
    {
      "constant": true,
      "inputs": [],
      "name": "getEthereumPrice",
      "outputs": [
        {
          "name": "__eth_price",
          "type": "uint256"
        }
      ],
      "payable": false,
      "stateMutability": "view",
      "type": "function"
    },
    {
      "constant": true,
      "inputs": [],
      "name": "getContractCreator",
      "outputs": [
        {
          "name": "__rawbot_team",
          "type": "address"
        }
      ],
      "payable": false,
      "stateMutability": "view",
      "type": "function"
    },
    {
      "constant": true,
      "inputs": [],
      "name": "getContractBalance",
      "outputs": [
        {
          "name": "__balance",
          "type": "uint256"
        }
      ],
      "payable": false,
      "stateMutability": "view",
      "type": "function"
    },
    {
      "constant": true,
      "inputs": [],
      "name": "getApiEndpoint",
      "outputs": [
        {
          "name": "__api_endpoint",
          "type": "string"
        }
      ],
      "payable": false,
      "stateMutability": "view",
      "type": "function"
    },
    {
      "constant": true,
      "inputs": [],
      "name": "getCurrentSupply",
      "outputs": [
        {
          "name": "__current_supply",
          "type": "uint256"
        }
      ],
      "payable": false,
      "stateMutability": "view",
      "type": "function"
    },
    {
      "constant": true,
      "inputs": [],
      "name": "getCurrentSupplyMultiplier",
      "outputs": [
        {
          "name": "__current_supply_multiplier",
          "type": "uint256"
        }
      ],
      "payable": false,
      "stateMutability": "view",
      "type": "function"
    },
    {
      "constant": true,
      "inputs": [
        {
          "name": "user",
          "type": "address"
        }
      ],
      "name": "getBalance",
      "outputs": [
        {
          "name": "balance",
          "type": "uint256"
        }
      ],
      "payable": false,
      "stateMutability": "view",
      "type": "function"
    },
    {
      "constant": false,
      "inputs": [
        {
          "name": "myid",
          "type": "bytes32"
        },
        {
          "name": "result",
          "type": "string"
        },
        {
          "name": "proof",
          "type": "bytes"
        }
      ],
      "name": "__callback",
      "outputs": [],
      "payable": false,
      "stateMutability": "nonpayable",
      "type": "function"
    },
    {
      "constant": false,
      "inputs": [
        {
          "name": "myid",
          "type": "bytes32"
        },
        {
          "name": "result",
          "type": "string"
        }
      ],
      "name": "__callback",
      "outputs": [],
      "payable": false,
      "stateMutability": "nonpayable",
      "type": "function"
    }
  ],
  "bytecode": "0x6080604052608060405190810160405280604e81526020017f6a736f6e2868747470733a2f2f626974747265782e636f6d2f6170692f76312e81526020017f312f7075626c69632f6765747469636b65723f6d61726b65743d5553442d455481526020017f48292e726573756c742e4c617374000000000000000000000000000000000000815250601290805190602001906200009e9291906200030c565b5060006013556000601455601460155560006016556301312d006040805190810160405280600d81526020017f526177626f74205465737420310000000000000000000000000000000000000081525060126040805190810160405280600381526020017f5457520000000000000000000000000000000000000000000000000000000000815250336000806101000a81548173ffffffffffffffffffffffffffffffffffffffff021916908373ffffffffffffffffffffffffffffffffffffffff1602179055508160ff16600a0a8402600260003373ffffffffffffffffffffffffffffffffffffffff1673ffffffffffffffffffffffffffffffffffffffff168152602001908152602001600020819055508160ff16600a0a84026001819055508260049080519060200190620001d99291906200030c565b5081600560006101000a81548160ff021916908360ff16021790555080600690805190602001906200020d9291906200030c565b5050505050736f485c8bf6fc43ea212e93bbf8ce046c7f1cb475600760006101000a81548173ffffffffffffffffffffffffffffffffffffffff021916908373ffffffffffffffffffffffffffffffffffffffff16021790555033600c60006101000a81548173ffffffffffffffffffffffffffffffffffffffff021916908373ffffffffffffffffffffffffffffffffffffffff16021790555060056001805402811515620002b957fe5b04600260003373ffffffffffffffffffffffffffffffffffffffff1673ffffffffffffffffffffffffffffffffffffffff16815260200190815260200160002081905550600154601181905550620003bb565b828054600181600116156101000203166002900490600052602060002090601f016020900481019282601f106200034f57805160ff191683800117855562000380565b8280016001018555821562000380579182015b828111156200037f57825182559160200191906001019062000362565b5b5090506200038f919062000393565b5090565b620003b891905b80821115620003b45760008160009055506001016200039a565b5090565b90565b613ff580620003cb6000396000f3006080604052600436106101ac576000357c0100000000000000000000000000000000000000000000000000000000900463ffffffff16806306fdde03146101e3578063095ea7b3146102735780630e258726146102d85780630f38b8f41461032f57806317de99331461038657806318160ddd146103b157806327dc297e146103dc57806327e235e314610453578063313ce567146104aa57806338bbfa50146104db57806342966c68146105985780634a2c25c1146105dd5780634f3e1efc146106155780635818a035146106405780635b8da742146106975780635c658165146106ef5780635f823d28146107665780636f9fb98a146107cf57806370a08231146107fa5780638da5cb5b1461085157806395d89b41146108a857806397d63f93146109385780639bddd05f14610963578063a39fac121461098e578063a9059cbb146109fa578063ac2ce9bc14610a47578063ac57cbc114610ab4578063b71b5c3814610b0f578063be45fd6214610b9f578063c9af97b514610c32578063d196508014610c8d578063dd62ed3e14610ca4578063f2fde38b14610d1b578063f8b2cb4f14610d5e575b600060135414806101c2575061012c6014544203115b156101d6576101d13334610db5565b6101e1565b6101e03334610f13565b5b005b3480156101ef57600080fd5b506101f8610ff1565b6040518080602001828103825283818151815260200191508051906020019080838360005b8381101561023857808201518184015260208101905061021d565b50505050905090810190601f1680156102655780820380516001836020036101000a031916815260200191505b509250505060405180910390f35b34801561027f57600080fd5b506102be600480360381019080803573ffffffffffffffffffffffffffffffffffffffff1690602001909291908035906020019092919050505061108f565b604051808215151515815260200191505060405180910390f35b3480156102e457600080fd5b506102ed611181565b604051808273ffffffffffffffffffffffffffffffffffffffff1673ffffffffffffffffffffffffffffffffffffffff16815260200191505060405180910390f35b34801561033b57600080fd5b506103446111ab565b604051808273ffffffffffffffffffffffffffffffffffffffff1673ffffffffffffffffffffffffffffffffffffffff16815260200191505060405180910390f35b34801561039257600080fd5b5061039b6111d5565b6040518082815260200191505060405180910390f35b3480156103bd57600080fd5b506103c66111df565b6040518082815260200191505060405180910390f35b3480156103e857600080fd5b506104516004803603810190808035600019169060200190929190803590602001908201803590602001908080601f01602080910402602001604051908101604052809392919081815260200183838082843782019150505050505091929192905050506111e5565b005b34801561045f57600080fd5b50610494600480360381019080803573ffffffffffffffffffffffffffffffffffffffff1690602001909291905050506113a1565b6040518082815260200191505060405180910390f35b3480156104b657600080fd5b506104bf6113b9565b604051808260ff1660ff16815260200191505060405180910390f35b3480156104e757600080fd5b506105966004803603810190808035600019169060200190929190803590602001908201803590602001908080601f0160208091040260200160405190810160405280939291908181526020018383808284378201915050505050509192919290803590602001908201803590602001908080601f01602080910402602001604051908101604052809392919081815260200183838082843782019150505050505091929192905050506113cc565b005b3480156105a457600080fd5b506105c3600480360381019080803590602001909291905050506113d1565b604051808215151515815260200191505060405180910390f35b6105fb60048036038101908080359060200190929190505050611583565b604051808215151515815260200191505060405180910390f35b34801561062157600080fd5b5061062a61187c565b6040518082815260200191505060405180910390f35b34801561064c57600080fd5b50610655611886565b604051808273ffffffffffffffffffffffffffffffffffffffff1673ffffffffffffffffffffffffffffffffffffffff16815260200191505060405180910390f35b6106d5600480360381019080803573ffffffffffffffffffffffffffffffffffffffff169060200190929190803590602001909291905050506118b0565b604051808215151515815260200191505060405180910390f35b3480156106fb57600080fd5b50610750600480360381019080803573ffffffffffffffffffffffffffffffffffffffff169060200190929190803573ffffffffffffffffffffffffffffffffffffffff1690602001909291905050506119c2565b6040518082815260200191505060405180910390f35b34801561077257600080fd5b506107cd600480360381019080803590602001908201803590602001908080601f01602080910402602001604051908101604052809392919081815260200183838082843782019150505050505091929192905050506119e7565b005b3480156107db57600080fd5b506107e4611a5c565b6040518082815260200191505060405180910390f35b34801561080657600080fd5b5061083b600480360381019080803573ffffffffffffffffffffffffffffffffffffffff169060200190929190505050611a7b565b6040518082815260200191505060405180910390f35b34801561085d57600080fd5b50610866611ac4565b604051808273ffffffffffffffffffffffffffffffffffffffff1673ffffffffffffffffffffffffffffffffffffffff16815260200191505060405180910390f35b3480156108b457600080fd5b506108bd611ae9565b6040518080602001828103825283818151815260200191508051906020019080838360005b838110156108fd5780820151818401526020810190506108e2565b50505050905090810190601f16801561092a5780820380516001836020036101000a031916815260200191505b509250505060405180910390f35b34801561094457600080fd5b5061094d611b87565b6040518082815260200191505060405180910390f35b34801561096f57600080fd5b50610978611b8d565b6040518082815260200191505060405180910390f35b34801561099a57600080fd5b506109a3611b97565b6040518080602001828103825283818151815260200191508051906020019060200280838360005b838110156109e65780820151818401526020810190506109cb565b505050509050019250505060405180910390f35b348015610a0657600080fd5b50610a45600480360381019080803573ffffffffffffffffffffffffffffffffffffffff16906020019092919080359060200190929190505050611c25565b005b348015610a5357600080fd5b50610ab2600480360381019080803573ffffffffffffffffffffffffffffffffffffffff169060200190929190803573ffffffffffffffffffffffffffffffffffffffff16906020019092919080359060200190929190505050611f67565b005b348015610ac057600080fd5b50610af5600480360381019080803573ffffffffffffffffffffffffffffffffffffffff169060200190929190505050612275565b604051808215151515815260200191505060405180910390f35b348015610b1b57600080fd5b50610b2461231c565b6040518080602001828103825283818151815260200191508051906020019080838360005b83811015610b64578082015181840152602081019050610b49565b50505050905090810190601f168015610b915780820380516001836020036101000a031916815260200191505b509250505060405180910390f35b348015610bab57600080fd5b50610c30600480360381019080803573ffffffffffffffffffffffffffffffffffffffff16906020019092919080359060200190929190803590602001908201803590602001908080601f01602080910402602001604051908101604052809392919081815260200183838082843782019150505050505091929192905050506123be565b005b348015610c3e57600080fd5b50610c73600480360381019080803573ffffffffffffffffffffffffffffffffffffffff1690602001909291905050506126fd565b604051808215151515815260200191505060405180910390f35b348015610c9957600080fd5b50610ca26127a4565b005b348015610cb057600080fd5b50610d05600480360381019080803573ffffffffffffffffffffffffffffffffffffffff169060200190929190803573ffffffffffffffffffffffffffffffffffffffff1690602001909291905050506128c0565b6040518082815260200191505060405180910390f35b348015610d2757600080fd5b50610d5c600480360381019080803573ffffffffffffffffffffffffffffffffffffffff169060200190929190505050612947565b005b348015610d6a57600080fd5b50610d9f600480360381019080803573ffffffffffffffffffffffffffffffffffffffff1690602001909291905050506129e5565b6040518082815260200191505060405180910390f35b6000610e9260006040805190810160405280600381526020017f55524c000000000000000000000000000000000000000000000000000000000081525060128054600181600116156101000203166002900480601f016020809104026020016040519081016040528092919081815260200182805460018160011615610100020316600290048015610e885780601f10610e5d57610100808354040283529160200191610e88565b820191906000526020600020905b815481529060010190602001808311610e6b57829003601f168201915b5050505050612a2e565b90508260176000836000191660001916815260200190815260200160002060006101000a81548173ffffffffffffffffffffffffffffffffffffffff021916908373ffffffffffffffffffffffffffffffffffffffff1602179055508160186000836000191660001916815260200190815260200160002081905550505050565b6000600260135483020290508060016000828254039250508190555080600260008573ffffffffffffffffffffffffffffffffffffffff1673ffffffffffffffffffffffffffffffffffffffff168152602001908152602001600020600082825401925050819055508273ffffffffffffffffffffffffffffffffffffffff167f0f4dbc66661750fa8a8e62421f5bc7a3dc4e4c8396309993f750cfdea1f016bb60135484844243604051808681526020018581526020018481526020018381526020018281526020019550505050505060405180910390a2505050565b60048054600181600116156101000203166002900480601f0160208091040260200160405190810160405280929190818152602001828054600181600116156101000203166002900480156110875780601f1061105c57610100808354040283529160200191611087565b820191906000526020600020905b81548152906001019060200180831161106a57829003601f168201915b505050505081565b600081600360003373ffffffffffffffffffffffffffffffffffffffff1673ffffffffffffffffffffffffffffffffffffffff16815260200190815260200160002060008573ffffffffffffffffffffffffffffffffffffffff1673ffffffffffffffffffffffffffffffffffffffff168152602001908152602001600020819055508273ffffffffffffffffffffffffffffffffffffffff163373ffffffffffffffffffffffffffffffffffffffff167f8c5be1e5ebec7d5bd14f71427d1e84f3dd0314c0f7b2291e5b200ac8c7c3b925846040518082815260200191505060405180910390a36001905092915050565b6000600c60009054906101000a900473ffffffffffffffffffffffffffffffffffffffff16905090565b6000600d60009054906101000a900473ffffffffffffffffffffffffffffffffffffffff16905090565b6000601154905090565b60015481565b6111ed612fd4565b73ffffffffffffffffffffffffffffffffffffffff163373ffffffffffffffffffffffffffffffffffffffff1614151561122657600080fd5b61122f81613336565b6013819055507f2ffd6537ffc6acf68a41f8abf5293e063e68188170dce30432363ad211d942bf81426040518080602001838152602001828103825284818151815260200191508051906020019080838360005b8381101561129e578082015181840152602081019050611283565b50505050905090810190601f1680156112cb5780820380516001836020036101000a031916815260200191505b50935050505060405180910390a14260148190555061134060176000846000191660001916815260200190815260200160002060009054906101000a900473ffffffffffffffffffffffffffffffffffffffff1660186000856000191660001916815260200190815260200160002054610f13565b60176000836000191660001916815260200190815260200160002060006101000a81549073ffffffffffffffffffffffffffffffffffffffff0219169055601860008360001916600019168152602001908152602001600020600090555050565b60026020528060005260406000206000915090505481565b600560009054906101000a900460ff1681565b505050565b6000670de0b6b3a76400008202600260003373ffffffffffffffffffffffffffffffffffffffff1673ffffffffffffffffffffffffffffffffffffffff1681526020019081526020016000205410151515611494576040517f08c379a00000000000000000000000000000000000000000000000000000000081526004018080602001828103825260128152602001807f4e6f7420656e6f7567682062616c616e6365000000000000000000000000000081525060200191505060405180910390fd5b670de0b6b3a76400008202600260003373ffffffffffffffffffffffffffffffffffffffff1673ffffffffffffffffffffffffffffffffffffffff16815260200190815260200160002060008282540392505081905550670de0b6b3a764000082026001600082825403925050819055507fcc16f5dbb4873280815c1ee09dbd06736cffcc184412cf7a71a0fdb75d397ca533670de0b6b3a76400008402604051808373ffffffffffffffffffffffffffffffffffffffff1673ffffffffffffffffffffffffffffffffffffffff1681526020018281526020019250505060405180910390a160019050919050565b60008060009054906101000a900473ffffffffffffffffffffffffffffffffffffffff1673ffffffffffffffffffffffffffffffffffffffff163373ffffffffffffffffffffffffffffffffffffffff161415156115e057600080fd5b3073ffffffffffffffffffffffffffffffffffffffff16316116366040805190810160405280600381526020017f55524c000000000000000000000000000000000000000000000000000000000081525061334a565b1115611701577f2ffd6537ffc6acf68a41f8abf5293e063e68188170dce30432363ad211d942bf4260405180806020018381526020018281038252604b8152602001807f4f7261636c697a6520717565727920776173204e4f542073656e742c20706c6581526020017f6173652061646420736f6d652045544820746f20636f76657220666f7220746881526020017f65207175657279206665650000000000000000000000000000000000000000008152506060019250505060405180910390a160009050611877565b7f2ffd6537ffc6acf68a41f8abf5293e063e68188170dce30432363ad211d942bf426040518080602001838152602001828103825260358152602001807f4f7261636c697a65207175657279207761732073656e742c207374616e64696e81526020017f6720627920666f722074686520616e737765722e2e00000000000000000000008152506040019250505060405180910390a1611871826040805190810160405280600381526020017f55524c000000000000000000000000000000000000000000000000000000000081525060128054600181600116156101000203166002900480601f0160208091040260200160405190810160405280929190818152602001828054600181600116156101000203166002900480156118675780601f1061183c57610100808354040283529160200191611867565b820191906000526020600020905b81548152906001019060200180831161184a57829003601f168201915b5050505050612a2e565b50600190505b919050565b6000600154905090565b6000600f60009054906101000a900473ffffffffffffffffffffffffffffffffffffffff16905090565b6000670de0b6b3a76400008202600260003373ffffffffffffffffffffffffffffffffffffffff1673ffffffffffffffffffffffffffffffffffffffff168152602001908152602001600020541015151561190a57600080fd5b670de0b6b3a76400008202600260003373ffffffffffffffffffffffffffffffffffffffff1673ffffffffffffffffffffffffffffffffffffffff16815260200190815260200160002060008282540392505081905550670de0b6b3a76400008202600260008573ffffffffffffffffffffffffffffffffffffffff1673ffffffffffffffffffffffffffffffffffffffff168152602001908152602001600020600082825401925050819055506001905092915050565b6003602052816000526040600020602052806000526040600020600091509150505481565b6000809054906101000a900473ffffffffffffffffffffffffffffffffffffffff1673ffffffffffffffffffffffffffffffffffffffff163373ffffffffffffffffffffffffffffffffffffffff16141515611a4257600080fd5b8060129080519060200190611a58929190613f24565b5050565b60003073ffffffffffffffffffffffffffffffffffffffff1631905090565b6000600260008373ffffffffffffffffffffffffffffffffffffffff1673ffffffffffffffffffffffffffffffffffffffff168152602001908152602001600020549050919050565b6000809054906101000a900473ffffffffffffffffffffffffffffffffffffffff1681565b60068054600181600116156101000203166002900480601f016020809104026020016040519081016040528092919081815260200182805460018160011615610100020316600290048015611b7f5780601f10611b5457610100808354040283529160200191611b7f565b820191906000526020600020905b815481529060010190602001808311611b6257829003601f168201915b505050505081565b60115481565b6000601354905090565b6060600e805480602002602001604051908101604052809291908181526020018280548015611c1b57602002820191906000526020600020905b8160009054906101000a900473ffffffffffffffffffffffffffffffffffffffff1673ffffffffffffffffffffffffffffffffffffffff1681526020019060010190808311611bd1575b5050505050905090565b600060606000843b9250611c8184600260003373ffffffffffffffffffffffffffffffffffffffff1673ffffffffffffffffffffffffffffffffffffffff1681526020019081526020016000205461371e90919063ffffffff16565b600260003373ffffffffffffffffffffffffffffffffffffffff1673ffffffffffffffffffffffffffffffffffffffff16815260200190815260200160002081905550611d1684600260008873ffffffffffffffffffffffffffffffffffffffff1673ffffffffffffffffffffffffffffffffffffffff1681526020019081526020016000205461373790919063ffffffff16565b600260008773ffffffffffffffffffffffffffffffffffffffff1673ffffffffffffffffffffffffffffffffffffffff168152602001908152602001600020819055506000831115611e8e578490508073ffffffffffffffffffffffffffffffffffffffff1663c0ee0b8a3386856040518463ffffffff167c0100000000000000000000000000000000000000000000000000000000028152600401808473ffffffffffffffffffffffffffffffffffffffff1673ffffffffffffffffffffffffffffffffffffffff16815260200183815260200180602001828103825283818151815260200191508051906020019080838360005b83811015611e27578082015181840152602081019050611e0c565b50505050905090810190601f168015611e545780820380516001836020036101000a031916815260200191505b50945050505050600060405180830381600087803b158015611e7557600080fd5b505af1158015611e89573d6000803e3d6000fd5b505050505b8473ffffffffffffffffffffffffffffffffffffffff163373ffffffffffffffffffffffffffffffffffffffff167fe19260aff97b920c7df27010903aeb9c8d2be5d310a2c67824cf3f15396e4c1686856040518083815260200180602001828103825283818151815260200191508051906020019080838360005b83811015611f25578082015181840152602081019050611f0a565b50505050905090810190601f168015611f525780820380516001836020036101000a031916815260200191505b50935050505060405180910390a35050505050565b6000600f60009054906101000a900473ffffffffffffffffffffffffffffffffffffffff169050600115158173ffffffffffffffffffffffffffffffffffffffff166395a078e8336040518263ffffffff167c0100000000000000000000000000000000000000000000000000000000028152600401808273ffffffffffffffffffffffffffffffffffffffff1673ffffffffffffffffffffffffffffffffffffffff168152602001915050602060405180830381600087803b15801561202d57600080fd5b505af1158015612041573d6000803e3d6000fd5b505050506040513d602081101561205757600080fd5b8101908080519060200190929190505050151514806120a857503373ffffffffffffffffffffffffffffffffffffffff166120906111ab565b73ffffffffffffffffffffffffffffffffffffffff16145b806120e557503373ffffffffffffffffffffffffffffffffffffffff166120cd611886565b73ffffffffffffffffffffffffffffffffffffffff16145b15156120f057600080fd5b81600260008673ffffffffffffffffffffffffffffffffffffffff1673ffffffffffffffffffffffffffffffffffffffff168152602001908152602001600020541015806121ca575081600260008673ffffffffffffffffffffffffffffffffffffffff1673ffffffffffffffffffffffffffffffffffffffff168152602001908152602001600020541080156121c957506014600260008673ffffffffffffffffffffffffffffffffffffffff1673ffffffffffffffffffffffffffffffffffffffff16815260200190815260200160002054830311155b5b15156121d557600080fd5b81600260008673ffffffffffffffffffffffffffffffffffffffff1673ffffffffffffffffffffffffffffffffffffffff1681526020019081526020016000206000828254039250508190555081600260008573ffffffffffffffffffffffffffffffffffffffff1673ffffffffffffffffffffffffffffffffffffffff1681526020019081526020016000206000828254019250508190555050505050565b60008060009054906101000a900473ffffffffffffffffffffffffffffffffffffffff1673ffffffffffffffffffffffffffffffffffffffff163373ffffffffffffffffffffffffffffffffffffffff161415156122d257600080fd5b81600d60006101000a81548173ffffffffffffffffffffffffffffffffffffffff021916908373ffffffffffffffffffffffffffffffffffffffff16021790555060019050919050565b606060128054600181600116156101000203166002900480601f0160208091040260200160405190810160405280929190818152602001828054600181600116156101000203166002900480156123b45780601f10612389576101008083540402835291602001916123b4565b820191906000526020600020905b81548152906001019060200180831161239757829003601f168201915b5050505050905090565b600080843b915061241784600260003373ffffffffffffffffffffffffffffffffffffffff1673ffffffffffffffffffffffffffffffffffffffff1681526020019081526020016000205461371e90919063ffffffff16565b600260003373ffffffffffffffffffffffffffffffffffffffff1673ffffffffffffffffffffffffffffffffffffffff168152602001908152602001600020819055506124ac84600260008873ffffffffffffffffffffffffffffffffffffffff1673ffffffffffffffffffffffffffffffffffffffff1681526020019081526020016000205461373790919063ffffffff16565b600260008773ffffffffffffffffffffffffffffffffffffffff1673ffffffffffffffffffffffffffffffffffffffff168152602001908152602001600020819055506000821115612624578490508073ffffffffffffffffffffffffffffffffffffffff1663c0ee0b8a3386866040518463ffffffff167c0100000000000000000000000000000000000000000000000000000000028152600401808473ffffffffffffffffffffffffffffffffffffffff1673ffffffffffffffffffffffffffffffffffffffff16815260200183815260200180602001828103825283818151815260200191508051906020019080838360005b838110156125bd5780820151818401526020810190506125a2565b50505050905090810190601f1680156125ea5780820380516001836020036101000a031916815260200191505b50945050505050600060405180830381600087803b15801561260b57600080fd5b505af115801561261f573d6000803e3d6000fd5b505050505b8473ffffffffffffffffffffffffffffffffffffffff163373ffffffffffffffffffffffffffffffffffffffff167fe19260aff97b920c7df27010903aeb9c8d2be5d310a2c67824cf3f15396e4c1686866040518083815260200180602001828103825283818151815260200191508051906020019080838360005b838110156126bb5780820151818401526020810190506126a0565b50505050905090810190601f1680156126e85780820380516001836020036101000a031916815260200191505b50935050505060405180910390a35050505050565b60008060009054906101000a900473ffffffffffffffffffffffffffffffffffffffff1673ffffffffffffffffffffffffffffffffffffffff163373ffffffffffffffffffffffffffffffffffffffff1614151561275a57600080fd5b81600f60006101000a81548173ffffffffffffffffffffffffffffffffffffffff021916908373ffffffffffffffffffffffffffffffffffffffff16021790555060019050919050565b6000809054906101000a900473ffffffffffffffffffffffffffffffffffffffff1673ffffffffffffffffffffffffffffffffffffffff163373ffffffffffffffffffffffffffffffffffffffff161415156127ff57600080fd5b600260115402601181905550601154600160008282540192505081905550600560016011540281151561282e57fe5b0460026000600c60009054906101000a900473ffffffffffffffffffffffffffffffffffffffff1673ffffffffffffffffffffffffffffffffffffffff1673ffffffffffffffffffffffffffffffffffffffff1681526020019081526020016000206000828254019250508190555060056001601154028115156128ae57fe5b04600160008282540392505081905550565b6000600360008473ffffffffffffffffffffffffffffffffffffffff1673ffffffffffffffffffffffffffffffffffffffff16815260200190815260200160002060008373ffffffffffffffffffffffffffffffffffffffff1673ffffffffffffffffffffffffffffffffffffffff16815260200190815260200160002054905092915050565b6000809054906101000a900473ffffffffffffffffffffffffffffffffffffffff1673ffffffffffffffffffffffffffffffffffffffff163373ffffffffffffffffffffffffffffffffffffffff161415156129a257600080fd5b806000806101000a81548173ffffffffffffffffffffffffffffffffffffffff021916908373ffffffffffffffffffffffffffffffffffffffff16021790555050565b6000600260008373ffffffffffffffffffffffffffffffffffffffff1673ffffffffffffffffffffffffffffffffffffffff168152602001908152602001600020549050919050565b6000806000600760009054906101000a900473ffffffffffffffffffffffffffffffffffffffff1673ffffffffffffffffffffffffffffffffffffffff161480612aa257506000612aa0600760009054906101000a900473ffffffffffffffffffffffffffffffffffffffff16613755565b145b15612ab357612ab16000613760565b505b600760009054906101000a900473ffffffffffffffffffffffffffffffffffffffff1673ffffffffffffffffffffffffffffffffffffffff166338cc48316040518163ffffffff167c0100000000000000000000000000000000000000000000000000000000028152600401602060405180830381600087803b158015612b3957600080fd5b505af1158015612b4d573d6000803e3d6000fd5b505050506040513d6020811015612b6357600080fd5b810190808051906020019092919050505073ffffffffffffffffffffffffffffffffffffffff16600860009054906101000a900473ffffffffffffffffffffffffffffffffffffffff1673ffffffffffffffffffffffffffffffffffffffff16141515612ccc57600760009054906101000a900473ffffffffffffffffffffffffffffffffffffffff1673ffffffffffffffffffffffffffffffffffffffff166338cc48316040518163ffffffff167c0100000000000000000000000000000000000000000000000000000000028152600401602060405180830381600087803b158015612c5057600080fd5b505af1158015612c64573d6000803e3d6000fd5b505050506040513d6020811015612c7a57600080fd5b8101908080519060200190929190505050600860006101000a81548173ffffffffffffffffffffffffffffffffffffffff021916908373ffffffffffffffffffffffffffffffffffffffff1602179055505b600860009054906101000a900473ffffffffffffffffffffffffffffffffffffffff1673ffffffffffffffffffffffffffffffffffffffff1663524f3889856040518263ffffffff167c01000000000000000000000000000000000000000000000000000000000281526004018080602001828103825283818151815260200191508051906020019080838360005b83811015612d76578082015181840152602081019050612d5b565b50505050905090810190601f168015612da35780820380516001836020036101000a031916815260200191505b5092505050602060405180830381600087803b158015612dc257600080fd5b505af1158015612dd6573d6000803e3d6000fd5b505050506040513d6020811015612dec57600080fd5b8101908080519060200190929190505050905062030d403a02670de0b6b3a764000001811115612e225760006001029150612fcc565b600860009054906101000a900473ffffffffffffffffffffffffffffffffffffffff1673ffffffffffffffffffffffffffffffffffffffff1663adf59f99828787876040518563ffffffff167c0100000000000000000000000000000000000000000000000000000000028152600401808481526020018060200180602001838103835285818151815260200191508051906020019080838360005b83811015612ed9578082015181840152602081019050612ebe565b50505050905090810190601f168015612f065780820380516001836020036101000a031916815260200191505b50838103825284818151815260200191508051906020019080838360005b83811015612f3f578082015181840152602081019050612f24565b50505050905090810190601f168015612f6c5780820380516001836020036101000a031916815260200191505b50955050505050506020604051808303818588803b158015612f8d57600080fd5b505af1158015612fa1573d6000803e3d6000fd5b50505050506040513d6020811015612fb857600080fd5b810190808051906020019092919050505091505b509392505050565b600080600760009054906101000a900473ffffffffffffffffffffffffffffffffffffffff1673ffffffffffffffffffffffffffffffffffffffff16148061304657506000613044600760009054906101000a900473ffffffffffffffffffffffffffffffffffffffff16613755565b145b15613057576130556000613760565b505b600760009054906101000a900473ffffffffffffffffffffffffffffffffffffffff1673ffffffffffffffffffffffffffffffffffffffff166338cc48316040518163ffffffff167c0100000000000000000000000000000000000000000000000000000000028152600401602060405180830381600087803b1580156130dd57600080fd5b505af11580156130f1573d6000803e3d6000fd5b505050506040513d602081101561310757600080fd5b810190808051906020019092919050505073ffffffffffffffffffffffffffffffffffffffff16600860009054906101000a900473ffffffffffffffffffffffffffffffffffffffff1673ffffffffffffffffffffffffffffffffffffffff1614151561327057600760009054906101000a900473ffffffffffffffffffffffffffffffffffffffff1673ffffffffffffffffffffffffffffffffffffffff166338cc48316040518163ffffffff167c0100000000000000000000000000000000000000000000000000000000028152600401602060405180830381600087803b1580156131f457600080fd5b505af1158015613208573d6000803e3d6000fd5b505050506040513d602081101561321e57600080fd5b8101908080519060200190929190505050600860006101000a81548173ffffffffffffffffffffffffffffffffffffffff021916908373ffffffffffffffffffffffffffffffffffffffff1602179055505b600860009054906101000a900473ffffffffffffffffffffffffffffffffffffffff1673ffffffffffffffffffffffffffffffffffffffff1663c281d19e6040518163ffffffff167c0100000000000000000000000000000000000000000000000000000000028152600401602060405180830381600087803b1580156132f657600080fd5b505af115801561330a573d6000803e3d6000fd5b505050506040513d602081101561332057600080fd5b8101908080519060200190929190505050905090565b6000613343826000613771565b9050919050565b600080600760009054906101000a900473ffffffffffffffffffffffffffffffffffffffff1673ffffffffffffffffffffffffffffffffffffffff1614806133bc575060006133ba600760009054906101000a900473ffffffffffffffffffffffffffffffffffffffff16613755565b145b156133cd576133cb6000613760565b505b600760009054906101000a900473ffffffffffffffffffffffffffffffffffffffff1673ffffffffffffffffffffffffffffffffffffffff166338cc48316040518163ffffffff167c0100000000000000000000000000000000000000000000000000000000028152600401602060405180830381600087803b15801561345357600080fd5b505af1158015613467573d6000803e3d6000fd5b505050506040513d602081101561347d57600080fd5b810190808051906020019092919050505073ffffffffffffffffffffffffffffffffffffffff16600860009054906101000a900473ffffffffffffffffffffffffffffffffffffffff1673ffffffffffffffffffffffffffffffffffffffff161415156135e657600760009054906101000a900473ffffffffffffffffffffffffffffffffffffffff1673ffffffffffffffffffffffffffffffffffffffff166338cc48316040518163ffffffff167c0100000000000000000000000000000000000000000000000000000000028152600401602060405180830381600087803b15801561356a57600080fd5b505af115801561357e573d6000803e3d6000fd5b505050506040513d602081101561359457600080fd5b8101908080519060200190929190505050600860006101000a81548173ffffffffffffffffffffffffffffffffffffffff021916908373ffffffffffffffffffffffffffffffffffffffff1602179055505b600860009054906101000a900473ffffffffffffffffffffffffffffffffffffffff1673ffffffffffffffffffffffffffffffffffffffff1663524f3889836040518263ffffffff167c01000000000000000000000000000000000000000000000000000000000281526004018080602001828103825283818151815260200191508051906020019080838360005b83811015613690578082015181840152602081019050613675565b50505050905090810190601f1680156136bd5780820380516001836020036101000a031916815260200191505b5092505050602060405180830381600087803b1580156136dc57600080fd5b505af11580156136f0573d6000803e3d6000fd5b505050506040513d602081101561370657600080fd5b81019080805190602001909291905050509050919050565b600061372c83831115613a65565b818303905092915050565b600080828401905061374b84821015613a65565b8091505092915050565b6000813b9050919050565b600061376a613a74565b9050919050565b6000606060008060008693506000925060009150600090505b8351811015613a465760307f01000000000000000000000000000000000000000000000000000000000000000284828151811015156137c557fe5b9060200101517f010000000000000000000000000000000000000000000000000000000000000090047f0100000000000000000000000000000000000000000000000000000000000000027effffffffffffffffffffffffffffffffffffffffffffffffffffffffffffff1916101580156138dd575060397f010000000000000000000000000000000000000000000000000000000000000002848281518110151561386d57fe5b9060200101517f010000000000000000000000000000000000000000000000000000000000000090047f0100000000000000000000000000000000000000000000000000000000000000027effffffffffffffffffffffffffffffffffffffffffffffffffffffffffffff191611155b1561398e5781156139005760008614156138f657613a46565b8580600190039650505b600a830292506030848281518110151561391657fe5b9060200101517f010000000000000000000000000000000000000000000000000000000000000090047f0100000000000000000000000000000000000000000000000000000000000000027f010000000000000000000000000000000000000000000000000000000000000090040383019250613a39565b602e7f01000000000000000000000000000000000000000000000000000000000000000284828151811015156139c057fe5b9060200101517f010000000000000000000000000000000000000000000000000000000000000090047f0100000000000000000000000000000000000000000000000000000000000000027effffffffffffffffffffffffffffffffffffffffffffffffffffffffffffff19161415613a3857600191505b5b808060010191505061378a565b6000861115613a585785600a0a830292505b8294505050505092915050565b801515613a7157600080fd5b50565b600080613a94731d3b2638a7cc9f2cb3d298a3da7a90b67e5506ed613755565b1115613b3657731d3b2638a7cc9f2cb3d298a3da7a90b67e5506ed600760006101000a81548173ffffffffffffffffffffffffffffffffffffffff021916908373ffffffffffffffffffffffffffffffffffffffff160217905550613b2d6040805190810160405280600b81526020017f6574685f6d61696e6e6574000000000000000000000000000000000000000000815250613f0a565b60019050613f07565b6000613b5573c03a2615d5efaf5f49f60b7bb6583eaec212fdf1613755565b1115613bf75773c03a2615d5efaf5f49f60b7bb6583eaec212fdf1600760006101000a81548173ffffffffffffffffffffffffffffffffffffffff021916908373ffffffffffffffffffffffffffffffffffffffff160217905550613bee6040805190810160405280600c81526020017f6574685f726f707374656e330000000000000000000000000000000000000000815250613f0a565b60019050613f07565b6000613c1673b7a07bcf2ba2f2703b24c0691b5278999c59ac7e613755565b1115613cb85773b7a07bcf2ba2f2703b24c0691b5278999c59ac7e600760006101000a81548173ffffffffffffffffffffffffffffffffffffffff021916908373ffffffffffffffffffffffffffffffffffffffff160217905550613caf6040805190810160405280600981526020017f6574685f6b6f76616e0000000000000000000000000000000000000000000000815250613f0a565b60019050613f07565b6000613cd773146500cfd35b22e4a392fe0adc06de1a1368ed48613755565b1115613d795773146500cfd35b22e4a392fe0adc06de1a1368ed48600760006101000a81548173ffffffffffffffffffffffffffffffffffffffff021916908373ffffffffffffffffffffffffffffffffffffffff160217905550613d706040805190810160405280600b81526020017f6574685f72696e6b656279000000000000000000000000000000000000000000815250613f0a565b60019050613f07565b6000613d98736f485c8bf6fc43ea212e93bbf8ce046c7f1cb475613755565b1115613dfc57736f485c8bf6fc43ea212e93bbf8ce046c7f1cb475600760006101000a81548173ffffffffffffffffffffffffffffffffffffffff021916908373ffffffffffffffffffffffffffffffffffffffff16021790555060019050613f07565b6000613e1b7320e12a1f859b3feae5fb2a0a32c18f5a65555bbf613755565b1115613e7f577320e12a1f859b3feae5fb2a0a32c18f5a65555bbf600760006101000a81548173ffffffffffffffffffffffffffffffffffffffff021916908373ffffffffffffffffffffffffffffffffffffffff16021790555060019050613f07565b6000613e9e7351efaf4c8b3c9afbd5ab9f4bbc82784ab6ef8faa613755565b1115613f02577351efaf4c8b3c9afbd5ab9f4bbc82784ab6ef8faa600760006101000a81548173ffffffffffffffffffffffffffffffffffffffff021916908373ffffffffffffffffffffffffffffffffffffffff16021790555060019050613f07565b600090505b90565b8060099080519060200190613f20929190613f24565b5050565b828054600181600116156101000203166002900490600052602060002090601f016020900481019282601f10613f6557805160ff1916838001178555613f93565b82800160010185558215613f93579182015b82811115613f92578251825591602001919060010190613f77565b5b509050613fa09190613fa4565b5090565b613fc691905b80821115613fc2576000816000905550600101613faa565b5090565b905600a165627a7a723058202ce43044b8dc74a81a513bd046b94b5543597a873f74fbe68da69c64b2ca97100029",
  "source": "pragma solidity ^0.4.24;\n\nimport \"./lib/Oraclize.sol\";\nimport \"./lib/Owned.sol\";\nimport \"./DeviceSpawner.sol\";\nimport \"./eip/ERC223.sol\";\n\ncontract Rawbot is Owned, ERC223, usingOraclize {\n\n    address private _rawbot_team;\n    address private ipfs_address;\n    address[] private exchange_addresses;\n    address private device_spawner_address;\n    mapping(address => uint256) private pending;\n    uint256 public initSupply;\n    string private ETH_ENDPOINT = \"json(https://bittrex.com/api/v1.1/public/getticker?market=USD-ETH).result.Last\";\n\n    event Burn(address user, uint256 amount);\n    event OraclizeLog(string _description, uint256 _time);\n    event TransactionEvent(\n        address indexed _user,\n        uint256 _eth_price,\n        uint256 _input,\n        uint256 _output,\n        uint256 _time,\n        uint256 _block_number\n    );\n\n    uint256 private ETH_PRICE = 0;\n    uint256 private last_price_update = 0;\n    uint256 private NEGATIVE_BALANCE_MAX = 20;\n    uint private PAYMENT_STEP = 0;\n    mapping(bytes32 => address) private queries_address;\n    mapping(bytes32 => uint256) private queries_value;\n    mapping(address => uint256) private negativeBalanceOf;\n    /**\n        Rawbot has 20,000,000 tokens.\n        4,000,000 are held by the contract for the Rawbot team\n        16,000,000 are circulating\n    */\n    constructor() ERC223(20000000, \"Rawbot Test 1\", 18, \"TWR\") public payable {\n        OAR = OraclizeAddrResolverI(0x6f485C8BF6fc43eA212E93BBF8ce046C7f1cb475);\n        _rawbot_team = msg.sender;\n        balances[msg.sender] = (totalSupply * 1) / 5;\n        initSupply = totalSupply;\n    }\n\n    /**\n        This method is used to receive Ethereum & transfer Raw coins in return to the user\n        It adds them to transaction_exchanges mapping and executes all queued exchanges\n        at the same time to avoid fetching Ethereum price at the same time\n    */\n\n    function() payable public {\n        if (ETH_PRICE == 0 || now - last_price_update > 300) {\n            _buyQuery(msg.sender, msg.value);\n        } else {\n            _buy(msg.sender, msg.value);\n        }\n    }\n\n    function burn(uint256 _value) public returns (bool success) {\n        require(balances[msg.sender] >= (_value * 1e18), \"Not enough balance\");\n        balances[msg.sender] -= _value * 1e18;\n        totalSupply -= _value * 1e18;\n        emit Burn(msg.sender, _value * 1e18);\n        return true;\n    }\n\n    function burnFrom(address _from, uint256 _value) private returns (bool success) {\n        require(balances[_from] >= (_value * 1e18), \"Not enough balance\");\n        balances[_from] -= _value * 1e18;\n        totalSupply -= _value * 1e18;\n        emit Burn(_from, _value * 1e18);\n        return true;\n    }\n\n    function sendRawbot(address _address, uint256 value) public payable returns (bool) {\n        require(balances[msg.sender] >= value * 1e18);\n        balances[msg.sender] -= value * 1e18;\n        balances[_address] += value * 1e18;\n        return true;\n    }\n\n    /**\n        This method is used to modify user's balance externally\n        It can only be used by created Merchant contract addresses\n    */\n\n    function modifyBalance(address from, address to, uint256 amount) external {\n        DeviceSpawner deviceSpawner = DeviceSpawner(device_spawner_address);\n        require(deviceSpawner.hasAccess(msg.sender) == true || getIPFSAddress() == msg.sender || getDeviceSpawnerAddress() == msg.sender);\n        require(balances[from] >= amount || (balances[from] < amount && amount - balances[from] <= 20));\n        balances[from] -= amount;\n        balances[to] += amount;\n    }\n\n    //https://api.binance.com/api/v3/ticker/price?symbol=ETHUSDT -> .price\n    //https://bittrex.com/api/v1.1/public/getticker?market=USD-ETH -> .result.Last\n    /**\n        'json(https://api.binance.com/api/v3/ticker/price?symbol=ETHUSDT).price';\n        'json(https://bittrex.com/api/v1.1/public/getticker?market=USD-ETH).result.Last';\n    **/\n\n    function changeUrl(string endpoint) public onlyOwner {\n        ETH_ENDPOINT = endpoint;\n    }\n\n    /**\n       This method is used to fetch the Ethereum price using Oraclize API\n    */\n    function fetchEthereumPrice(uint timing) public onlyOwner payable returns (bool) {\n        if (oraclize_getPrice(\"URL\") > address(this).balance) {\n            emit OraclizeLog(\"Oraclize query was NOT sent, please add some ETH to cover for the query fee\", now);\n            return false;\n        } else {\n            emit OraclizeLog(\"Oraclize query was sent, standing by for the answer..\", now);\n            oraclize_query(timing, \"URL\", ETH_ENDPOINT);\n            return true;\n        }\n    }\n\n\n    function increaseSupply() public onlyOwner {\n        initSupply = initSupply * 2;\n        totalSupply += initSupply;\n        balances[_rawbot_team] += (initSupply * 1) / 5;\n        totalSupply -= (initSupply * 1) / 5;\n    }\n\n    /**\n        This method is used to set the DeviceManager's address\n        It's used to manipulate the modifyBalance function\n    */\n    function setDeviceSpawnerAddress(address _address) public onlyOwner returns (bool success){\n        device_spawner_address = _address;\n        return true;\n    }\n\n    /**\n        This method returns the DeviceManager's address\n    */\n    function getDeviceSpawnerAddress() public view returns (address __device_spawner_address) {\n        return device_spawner_address;\n    }\n\n    /**\n       This method is used to set the DeviceManager's address\n       It's used to manipulate the modifyBalance function\n   */\n    function setIPFSAddress(address __ipfs_address) public onlyOwner returns (bool success){\n        ipfs_address = __ipfs_address;\n        return true;\n    }\n\n    /**\n        This method returns the DeviceManager's address\n    */\n    function getIPFSAddress() public view returns (address __ipfs_address) {\n        return ipfs_address;\n    }\n\n    /**\n        This method returns the exchange addresses\n    */\n    function getAddresses() public view returns (address[] __addresses) {\n        return exchange_addresses;\n    }\n\n    /**\n        This method returns the Ethereum price\n    */\n    function getEthereumPrice() public view returns (uint __eth_price) {\n        return ETH_PRICE;\n    }\n\n    function getContractCreator() public view returns (address __rawbot_team){\n        return _rawbot_team;\n    }\n\n    function getContractBalance() public view returns (uint256 __balance){\n        return address(this).balance;\n    }\n\n    function getApiEndpoint() public view returns (string __api_endpoint){\n        return ETH_ENDPOINT;\n    }\n\n    function getCurrentSupply() public view returns (uint256 __current_supply){\n        return totalSupply;\n    }\n\n    function getCurrentSupplyMultiplier() public view returns (uint256 __current_supply_multiplier){\n        return initSupply;\n    }\n\n    function getBalance(address user) external view returns (uint256 balance){\n        return balances[user];\n    }\n\n    function _buyQuery(address _address, uint256 _value) private {\n        bytes32 my_id = oraclize_query(0, \"URL\", ETH_ENDPOINT);\n        queries_address[my_id] = _address;\n        queries_value[my_id] = _value;\n    }\n\n    function _buy(address _address, uint256 _value) private {\n        uint256 raw_amount = (_value * ETH_PRICE * 2);\n        totalSupply -= raw_amount;\n        balances[_address] += raw_amount;\n        emit TransactionEvent(\n            _address,\n            ETH_PRICE,\n            _value,\n            raw_amount,\n            now,\n            block.number\n        );\n    }\n\n    function __callback(bytes32 myid, string result) {\n        if (msg.sender != oraclize_cbAddress()) revert();\n        ETH_PRICE = parseInt(result);\n        emit OraclizeLog(result, now);\n        last_price_update = now;\n        _buy(queries_address[myid], queries_value[myid]);\n        delete queries_address[myid];\n        delete queries_value[myid];\n    }\n}",
  "sourcePath": "/Users/hassanjawhar/Desktop/Workspace/rawbot/smart-contract/contracts/Rawbot.sol",
  "compiler": {
    "name": "solc",
    "version": "0.4.24+commit.e67f0147.Emscripten.clang"
  },
  "schemaVersion": "2.0.1",
  "updatedAt": "2019-01-23T17:49:09.991Z"
}